:400000000040002011000000BD020000BD02000080B500AF00F056F980B500AF154B12221A60182000F0B8FB134B144A1A60144BE02212011A60134B134A1A60134BC02248
:4000400012011A600F4B124A1A60124B822212061A60114B00221A60104B41221A60104B40221A600F4B00221A60024B11221A60BD4680BD3000104004010B400600008043
:40008000040301400000014041FF00800003014040FF008008010B4000010B4028010140140101400C020B4080B582B000AF72B6FB1D00221A7023E0FB1D1A78131C5B0002
:4000C0009B185B00324A9B183B603B681A78597809020A43997809040A43DB781B061343191C3B681A795B791B0213439BB2081C191C00F06BF9FB1D1A78FB1D01321A706A
:40010000FB1D1B78012BD7D9224BEE2212021A60214B99221A60214B992212041A60204B992212041A601F4A1E4B1B78DBB202210B43DBB213701C4A1B4B1B78DBB23C2163
:400140008B43DBB214210B43DBB21370154A154B1B78DBB216210B43DBB21370134B33221A60134B33221A60124BD82212011A60114B02221A60114B31221A60104B02223D
:400180001A60FFF749FF00F031F9BD4602B080BD08100000000302400007024020500F4030500F4000700F4001700F40000204401802044008030440000704400807044037
:4001C0001807044010B5064C2378002B07D1054B002B02D0044800E000BF0123237010BDE0000020000000000410000008B5084B002B03D00748084900E000BF0748036810
:40020000002B00D108BD064B002BFBD09847F9E70000000004100000E4000020C80000200000000080B582B000AF00F01DF962B600F0D8FB00F070FD00F008FD00F0CCF9F9
:40024000031C3B603B68002B09D03B68532B01D100F0FCFC3B68452B01D100F005FD154B1B78002B24D0BB1D00221A8019E0BB1D1A88114B5200D35A1BB2181C00F030F95D
:40028000BB1D1A880C4B5200D35A1BB21B129BB21BB2181C00F024F9BB1D1A88BB1D01321A80BB1D1B88022BE1D9024B00221A70C4E7C04602010020FC00002080B500AF4B
:4002C000FEE7C04680B586B000AF224B7B61224B3B61204B7B6135E03B691B68FB603B695B68BB603B699B683B6000237B600CE0FB681A68BB681A60BB680433BB60FB68C1
:400300000433FB607B6804337B607A683B689A42EED13B69DB683B6000237B6008E0BB6800221A60BB680433BB607B6804337B607A683B689A42F2D13B6910333B617B69FA
:40034000013B7B617B69002BC6D100F02DFEFFF769FFFEE7010000009010000080B582B000AF154B144A126801218A431A6000237B600FE07B68032B04D8104B7A68920060
:40038000D35800E00E4B0F4A796889008B507B6801337B607B682F2BECD9FFF785FE0A4B00221A60044B044A126801210A431A60BD4602B080BDC046000010400000000095
:4003C000BD02000000000020C000002080B582B000AF786039607A683B68101C00211A1C00F008FEBD4602B080BDC04680B500AF0A4B03221A600A4B03221A60094B8022FF
:4004000012051A60084B094A1A60094B33221A60084B00221A60BD4680BDC046300030403000314000003A4000033A401320000040033A40000E3F4080B500AF00F066F8CC
:40044000BD4680BD80B500AF064B064A1268802109060A431A6000F019F800F01BF8BD4680BDC0460000274080B500AF064B1B78002B04D1FFF7E0FF034B01221A70FFF787
:40048000E1FFBD4680BDC0460401002080B500AFBD4680BD80B500AF00F090F8BD4680BD80B582B000AF00237B60044B1B687B607B68181CBD4602B080BDC04640032740B7
:4004C00080B582B000AF054B1B681F2213407B607B68181CBD4602B080BDC0460803274080B582B000AF7860C046064B1B681F221340082BF9D0044B7A681A60BD4602B06B
:4005000080BDC046080227404002274080B500AF184B194A1A60194B00221A60184B01221A60184B184A1A60184B07221A60184B00221A60174B01221A60174B124A1A60BF
:40054000164B00221A60164B04221A60154B00221A60154B00221A60144B00221A60144B00221A60134B00221A60134B00221A60BD4680BD000027400F000002400027403C
:40058000480027400003274007000080040327401003274044002740000227400402274050002740880E2740C80E2740480F2740080F2740C80F2740880F274080B500AFE5
:4005C000044B044A1268F0218A4390210A431A60BD4680BD0007024080B582B000AF00237B60FFF76DFF031E03D0FFF759FF031C7B60084B1A68D8239B00134005D000239D
:400600007B60044BD82292001A607B68181CBD4602B080BDC00F274090B587B000AF03233B610023BB6000F0CFF9031E00D17DE0FC1D00F086FB031C237000237B6112E0EC
:400640003C4B1B68DBB21A1C3F2313403A497A698A181278934203D17B6903333B6105E07B6901337B617B692D2BE9D9334B1B681F22134007D1314B304A12681F218A4346
:400680000C210A431A602E4B1B682E4A1340FB603B692D4A53438022D20194466344DB0B013B5B055B0DFA681343FB60FB68A02252031343FB603B69192B05D8FB68FF220C
:4006C00092051343FB6016E03B69204A944663441B78DBB2191C3B691A3B1D4AD35CCB18BB60BB68FF2B00D9FF23BB60BB689B05FA681343FB60124BFA681A60154B1B68F6
:400700003B60302000F024FB134B134A12688021C9050A431A60142000F01EF90D4B3A681A60FB1D1B78181C00F00FFBBD4607B090BDC0462CFF0B401410000034FF0B40A7
:400740000800224000F800C040420F00CDF1FF0F44100000300010400000224080B500AF034B034A126803490A401A60BD4680BD00002240FFFFFFBF80B500AF054B1A68A7
:400780008023DB05134001D0012300E00023181CBD4680BD0000224090B58BB000AF786000237B622323FC1800F0CBFA031C2370FFF7E2FF031E03D001237B62FFF7CEFF3E
:4007C0001B4B1A680823FB181A601A4B1A680823FB185A607B68033B174AD35C1A1C0823FB189A60154B1A680823FB18DA601823FB18134A1A600823FA181823FB185A6097
:40080000104B1822BA181A600F4B104A1A600D4B1B687B6A012B01D1FFF7FEFE2323FB181B78181C00F091FABD460BB090BDC04608010B4000010B40141000003000104009
:40084000B6EA000008001040040010401700008080B584B000AF021C3960FB1D1A7080239B05FB60FB1D1B781F2B02D9002000F069F8FB1D1B7810339B00FA68D3181B68EC
:40088000BB60FB1D1B7810339B00FA68D3183A681A60BB68181CBD4604B080BD90B587B000AF021CFB1D1A70BB1D0A1C1A70BB1D1B78032B02D9002000F044F8FB1D1B7802
:4008C0001F2B02D9002000F03DF8FB1D1B7803221340DB0006337B611323FC1800F031FA031C2370FB1D1B789B08DBB29B00144A944663441B68FB607B6903229A40131C1F
:40090000DA43FB681340FB60BB1D1A787B699A40131CFA681343FB60FB1D1B789B08DBB29B00074A94466344FA681A601323FB181B78181C00F009FABD4607B090BDC046EB
:4009400000E400E080B582B000AF021CFB1D1A7001BEBD4602B080BD80B582B000AF786009E00C4B1B68181C00F0E2F97B680A4A944663447B607A6880231B029A42F0D8A3
:40098000064B1B687A685343181C00F0D1F9BD4602B080BDD80000200080FFFFD000002080B582B000AF021CBB1D1A80BB1D1B88044A12785343181C00F0BAF9BD4602B08A
:4009C00080BDC046D400002080B500AF044B1B68002B01DA012300E00023181CBD4680BD0000224080B500AF064B1B78002B04D100F00AF8034B01221A7000F00BF9BD465B
:400A000080BDC0460501002080B584B000AF10200321FFF743FF624B1020191CFFF718FF604B07221A60604B1B68002B01DA5F4900E05F495F4B5F4A12680A431A605E4B9B
:400A40005E4A1A605E4B5F4A1A605F4B00221A605E4B5F4A1A605F4B5F4A1A605F4B5F4A1268802149020A431A605D4B5C4A1268802149020A431A605A4B00221A605A4BC8
:400A800000221A60594B01221A60594B1B687B607B68584A13407B607B688022920513437B607B68012293437B60514B7A681A600023FB606EE0504BFA689200D258DC2324
:400AC0009B0113407B604D4AFB68D3181B781A1C7B6813437B60FB689B00494A944663447A681A60444BFA689200D3580122134009D03C4B3B4A1268F96801208840011C12
:400B000089B20A431A603C4BFA689200D3580222134009D0344B344A1268F96801208840011C89B20A431A60334BFA689200D25880239B00134003D080235B00BB6002E0E2
:400B400080235B01BB602C4BFA689200D25880235B00134005D12B4BFA6852000021D15204E0284BFA6852000021D152BB68264A5343264A94466344181C234900F022F91D
:400B8000031C9BB219B2224BFA689200D150FB680133FB60FB68022B8DD9BD4604B080BDC90C000020003A4080033A40702010137020001300003A4004003A40CC0000809A
:400BC00018003A400000FF071C003A4010003A409800040014003A400400040000033A4040033A4028023A4038023A4018023A4030003A40FFFFFFDF5C100000681000007B
:400C000080003A401401002010270000881300000801002080B500AF0A4B1B68002B0EDBC046094B1B68002BFBDB064B054A1268802109060A431A600A20FFF7B1FEBD4679
:400C400080BDC04600003A4008023A4080B500AF044B044A1268802149020A431A60BD4680BDC04604003A4080B500AF034B034A126803490A401A60BD4680BD04003A40FA
:400C8000FFFFFEFF80B584B000AF78607B68022B02D90020FFF756FE7B68022B09D87B689B00084A944663441B681B041B0CFB6001E00023FB60FB689BB21BB2181CBD467B
:400CC00004B080BD80013A4080B582B000AF0F4B1B683B6000237B600CE07B68181CFFF7D1FF031C191C0A4B7A685200D1527B6801337B607B68022BEFDD064B01221A70E7
:400D0000024B3A681A60BD4602B080BD10023A40FC0000200201002080B500AF024B802252021A60BD4680BD00E100E0000000000230800803D00138FDD1C046C046C04645
:400D40007047EFF3108072B6704780F31088704790B585B000AF78600F23FC18FFF7F1FF031C23707B68102B06D8154B144A126803218A431A601AE07B68202B08D8104BC8
:400D80000F4A126803218A4301210A431A600EE07B68302B08D80A4B094A126803218A4302210A431A6002E00020FFF7CBFD0F23FB181B78181CFFF7C8FFBD4605B090BDEF
:400DC0003000104003460B437FD4002243088B4274D303098B425FD3030A8B4244D3030B8B4228D3030C8B420DD3FF22090212BA030C8B4202D31212090265D0030B8B4292
:400E000019D300E0090AC30B8B4201D3CB03C01A5241830B8B4201D38B03C01A5241430B8B4201D34B03C01A5241030B8B4201D30B03C01A5241C30A8B4201D3CB02C01A16
:400E40005241830A8B4201D38B02C01A5241430A8B4201D34B02C01A5241030A8B4201D30B02C01A5241CDD2C3098B4201D3CB01C01A524183098B4201D38B01C01A52417C
:400E800043098B4201D34B01C01A524103098B4201D30B01C01A5241C3088B4201D3CB00C01A524183088B4201D38B00C01A524143088B4201D34B00C01A5241411A00D2CD
:400EC00001465241104670475DE0CA0F00D04942031000D34042534000229C4603098B422DD3030A8B4212D3FC22890112BA030A8B420CD3890192118B4208D389019211D4
:400F00008B4204D389013AD0921100E08909C3098B4201D3CB01C01A524183098B4201D38B01C01A524143098B4201D34B01C01A524103098B4201D30B01C01A5241C30801
:400F40008B4201D3CB00C01A524183088B4201D38B00C01A5241D9D243088B4201D34B00C01A5241411A00D20146634652415B10104601D34042002B00D549427047634673
:400F80005B1000D3404201B5002000F00BF802BD0029F8D003B5FFF715FF0EBC4243891A1847C0467047C0460E4B70B500251E1C0D4CE41AA410A54204D0AB00F3589847AA
:400FC0000135F8E700F052F8084B00251E1C084CE41AA410A54204D0AB00F35898470135F8E770BD78100000781000007810000080100000031C8218934202D019700133D3
:40100000FAE770470000000000300F40000400400F400004030405060708090A0B0C0E0F101112131415161718191B1C1D1E1F2021222325262728292A2B2E2F303132337B
:4010400034350000EEDBC9B9AA9B8E82766B60564D443B332C241D17100A040000040000000400000005000000010400F8B5C046F8BC08BC9E467047ED0100005D03000009
:40108000F8B5C046F8BC08BC9E467047C5010000A0100000C800002018000000400000000000000000366E01C05D0000180000000000E02E000000000000000000000000CC
:4010C00000000000000000000000000000000000000000000000000000000000000000000000000000000000000000000000000000000000000000000000000000000000F0
:4011000000000000000000000000000000000000000000000000000000000000000000000000000000000000000000000000000000000000000000000000000000000000AF
:40114000000000000000000000000000000000000000000000000000000000000000000000000000000000000000000000000000000000000000000000000000000000006F
:40118000000000000000000000000000000000000000000000000000000000000000000000000000000000000000000000000000000000000000000000000000000000002F
:020000040001F9
:0200000490303A
:020000005AECB8
:0200000490402A
:4000000000000000000000000000000000000000000000000000000000000000000000000000000000000000000000000000000000000000000000000000000000000000C0
:400040000000000000000000000000000000000000000000000000000000000000000000000000000000000000000000000000000000000000000000000000000000000080
:0200000490501A
:0C0000000002112D11A1000111326C8DC5
:0200000490600A
:0100000001FE
:00000001FF