:400000000040002011000000310800003108000080B500AF00F010FC80B500AF244B12221A6001F013F9012001F020F9182000F097FF204B204A1A60204B204A1268022155
:400040000A431A601E4B1F4A1A601F4B1E4A126808218A431A60FA23DB00181C00F0CCFF1A4B181C01F096F8194BE02212011A60184B194A1A60194BC02212011A60154B4C
:40008000174A1A60174B822212061A60164B00221A60164B41221A60154B40221A60154B00221A60024B11221A60BD4680BDC0463000104004010B400600008078002E40DE
:4000C0007C002E402D3E00006CF02E40DC050000040301400000014041FF00800003014040FF008008010B4000010B4018010140040101400C020B4080B582B000AF72B6DD
:40010000424B00221A60424B01221A70FB1D00221A7023E0FB1D1A78131C5B009B185B003C4A9B183B603B681A78597809020A43997809040A43DB781B061343191C3B6814
:400140001A795B791B0213439BB2081C191C00F0F7FBFB1D1A78FB1D01321A70FB1D1B78012BD7D92C4A2D4B101C191C00F0F8FB2B4BEE2212061A602A4B992212041A600D
:40018000294B992212041A60284B992212041A60274B992212041A60264B02221A60264A254B1B78DBB202210B43DBB21370234A224B1B78DBB23C218B43DBB214210B4340
:4001C000DBB213701C4A1C4B1B78DBB216210B43DBB213701A4BD82212041A60194B20221A60194BC42292021A60184B20221A60174B03221A60174B03221A60FFF70CFFE4
:4002000000F0EEFBBD4602B080BDC0466CF02E401C700F4094210000A0210000A4210000000002400001024000500F4010500F4030500F402000104000700F4001700F407C
:4002400008000440000104400801044018010440000304401803044010B5064C2378002B07D1054B002B02D0044800E000BF0123237010BDB80100200000000090210000A2
:4002800008B5084B002B03D00748084900E000BF07480368002B00D108BD064B002BFBD09847F9E70000000090210000BC010020C80000200000000090B583B000AF7860FB
:4002C000786801F0DDFE031C0C1C384A13605460374A0023002413605460364B00221A8030E0344B1B881BB2334ADB00D31819685A68304B1B881BB22C48DB00C3185C68D8
:400300001B68081C111C1A1C231C01F0E9FB031C0C1C191C221C264B5C681B68081C111C1A1C231C01F0B4F8031C0C1C204A13605460204B1B889BB29BB201339BB29AB27D
:400340001C4B1A801B4B1B881BB2092BC9DD194B08221A8019E0174B1B881BB25A1C154B1B881BB21149DB00CB185C681B680F49D2008A18136054600E4B1B889BB29BB2AB
:40038000013B9BB29AB20B4B1A800A4B1B881BB2002BE0DA064B5C681B68181C211C01F039FE031C181CBD4603B090BDD801002028020020C0020020D000002090B583B0BA
:4003C00000AF78607B689BB21BB2181C01F058FE031C0C1C384A13605460384A0023002413605460364B00221A8030E0344B1B881BB2344ADB00D31819685A68304B1B883D
:400400001BB22D48DB00C3185C681B68081C111C1A1C231C01F064FB031C0C1C191C221C264B5C681B68081C111C1A1C231C01F02FF8031C0C1C214A13605460204B1B8830
:400440009BB29BB201339BB29AB21D4B1A801C4B1B881BB2092BC9DD194B08221A8019E0174B1B881BB25A1C154B1B881BB21249DB00CB185C681B680F49D2008A1813608A
:4004800054600F4B1B889BB29BB2013B9BB29AB20B4B1A800A4B1B881BB2002BE0DA074B5C681B68181C211C01F0B4FD031C181CBD4603B090BDC046300200208002002086
:4004C000C00200202001002080B582B000AF78607B68012B11DC7B6823330EDB7B685A1E131C9B009B185B00181C2423594200F0DDFE031C7B607B6876E07B68223313DA61
:400500007B68613310DB7B6823331A1C131C9B009B189B00181C3E23594200F0C7FE031C0A337B607B685FE07B68603313DA7B68993310DB7B6861331A1C131C9B009B186D
:400540009B00181C3823594200F0B0FE031C1E337B607B6848E07B68983313DA7B68BC3310DB7B6899331A1C131C9B009B189B00181C2323594200F099FE031C32337B6072
:400580007B6831E07B68BB3313DA7B68C83310DB7B68BC331A1C131C9B009B185B00181C0C23594200F082FE031C46337B607B681AE07B68C73313DA7B68D03310DB7B68A4
:4005C000C8331A1C131C9B009B185B00181C0523594200F06BFE031C50337B607B6803E0C8235B427B607B68181CBD4602B080BD80B582B000AF78607B68012B11DC7B6826
:4006000023330EDB7B685A1E131C9B009B185B00181C2423594200F049FE031C7B607B6874E07B68223313DA7B68603310DB7B6823331A1C131C9B009B189B00181C3D2329
:40064000594200F033FE031C0A337B607B685DE07B685F3313DA7B68933310DB7B6860331A1C131C9B009B189B00181C3323594200F01CFE031C1E337B607B6846E07B6847
:40068000923313DA7B68B43310DB7B6893331A1C131C9B009B189B00181C2123594200F005FE031C32337B607B682FE07B68B33313DA7B68BD3310DB7B68B4331A1C131CE2
:4006C0009B009B185B00181C0923594200F0EEFD031C46337B607B6818E07B68BC3311DA7B68C1330EDB7B68BD331A1C131C9B009B185B0000D503339B105B4250337B601E
:400700007B6803E0C8235B427B607B68181CBD4602B080BD80B500AF002000F07BFB031C9BB20C4A944663449BB29AB20A4B1A80012000F06FFB031C9BB2084A9446634498
:400740009BB29AB2064B1A80064B01221A70BD4680BDC04615FCFFFFC402002034FCFFFFC6020020CC02002080B582B000AF2A4B181C00F07FFB62B600F06EF900F008FA2E
:4007800000F03AFB00F0D0FB244B1B78002B41D0234B1B881BB2181CFFF78EFD021CBB1D1A80BB1D00229B5E181CFFF78DFE031C9AB21C4B1A801C4B1B881BB2181CFFF7E3
:4007C000FDFD021C3B1D1A803B1D00229B5E181CFFF70EFF031C9AB2144B1A80114B1B889AB2124B1B889BB2D3189AB2BB1C1A80BB1C00229B5E181C00F04AF9BB1C00224F
:400800009B5E1B129BB21BB2181C00F041F9034B00221A70B8E7C04615070000CC020020C4020020D4020020C6020020D802002080B500AFFEE7C04680B586B000AF224B5D
:400840007B61224B3B61204B7B6135E03B691B68FB603B695B68BB603B699B683B6000237B600CE0FB681A68BB681A60BB680433BB60FB680433FB607B6804337B607A6844
:400880003B689A42EED13B69DB683B6000237B6008E0BB6800221A60BB680433BB607B6804337B607A683B689A42F2D13B6910333B617B69013B7B617B69002BC6D101F02F
:4008C00039FCFFF751FFFEE7010000004C22000080B582B000AF154B144A126801218A431A6000237B600FE07B68032B04D8104B7A689200D35800E00E4B0F4A79688900A2
:400900008B507B6801337B607B682F2BECD9FFF7F3FB0A4B00221A60044B044A126801210A431A60BD4602B080BDC04600001040000000003108000000000020C000002092
:4009400080B582B000AF786039607A683B68101C00211A1C01F014FCBD4602B080BDC04680B586B000AF7860396000233B6100237B612FE07B699B007A68D3181B68BB60AD
:400980000F23FB18BA681A70BB68FF229343BB6018E03B695B003A68D3181B781A1CBB68D318191C3B695B003A68D3185B780B703B6901333B610F23FB181A780F23FB1817
:4009C000013A1A700F23FB181B78002BE1D17B6901337B617B69002BCCD0BD4606B080BD80B500AF0A4B03221A600A4B03221A60094B802212051A60084B03221A60084B50
:400A000003221A60074B00221A60BD4680BDC046300030403000314000003A4000033A4040033A40000E3F4080B500AF00F046F8BD4680BD80B500AF064B064A126880216F
:400A400009060A431A6000F019F800F01BF8BD4680BDC0460000244080B500AF064B1B78002B04D1FFF7E0FF034B01221A70FFF7E1FFBD4680BDC046D002002080B500AF68
:400A8000BD4680BD80B500AF00F070F8BD4680BD80B582B000AF7860C046064B1B681F221340082BF9D0044B7A681A60BD4602B080BDC046080224404002244080B500AF87
:400AC000184B194A1A60194B00221A60184B01221A60184B184A1A60184B07221A60184B00221A60174B01221A60174B124A1A60164B00221A60164B04221A60154B0022BB
:400B00001A60154B00221A60144B00221A60144B00221A60134B00221A60134B00221A60BD4680BD000024400F0000024000244048002440000324400700008004032440F7
:400B40001003244044002440000224400402244050002440880E2440C80E2440480F2440080F2440C80F2440880F244080B500AF054B054A126805490A40902109040A4392
:400B80001A60BD4680BDC04600010240FFFF0FFF80B500AF064B1B78002B04D100F00AF8034B01221A7000F00BF9BD4680BDC046D102002080B584B000AF0F20032100F0E9
:400BC0008BFA624B0F20191C00F060FA604B03221A60604B1B68002B01DA5F4900E05F495F4B5F4A12680A431A605E4B5E4A1A605E4B5F4A1A605F4B00221A605E4B5F4AA4
:400C00001A605F4B5F4A1A605F4B5F4A1268802149020A431A605D4B5C4A1268802149020A431A605A4B00221A605A4B00221A60594B01221A60594B1B687B607B68584A28
:400C400013407B607B688022920513437B607B68012293437B60514B7A681A600023FB606EE0504BFA689200D258DC239B0113407B604D4AFB68D3181B781A1C7B68134315
:400C80007B60FB689B00494A944663447A681A60444BFA689200D3580122134009D03C4B3B4A1268F96801208840011C89B20A431A603C4BFA689200D3580222134009D009
:400CC000344B344A1268F96801208840011C89B20A431A60334BFA689200D25880239B00134003D080235B00BB6002E080235B01BB602C4BFA689200D25880235B00134019
:400D000005D12B4BFA6852000021D15204E0284BFA6852000021D152BB68264A5343264A94466344181C234900F0C0FA031C9BB219B2224BFA689200D150FB680133FB6011
:400D4000FB68012B8DD9BD4604B080BD590E000020003A4080033A40702010137020001300003A4004003A40CC00008018003A40000009081C003A4010003A40EC0004003F
:400D800014003A400400040000033A4040033A4028023A4038023A4018023A4030003A40FFFFFFDFAC210000B421000080003A40E40200201027000088130000DC0200207F
:400DC00080B500AF0A4B1B68002B0EDBC046094B1B68002BFBDB064B054A1268802109060A431A600A2000F0D5F9BD4680BDC04600003A4008023A4080B500AF044B044A07
:400E00001268802149020A431A60BD4680BDC04604003A4080B584B000AF78607B68012B02D9002000F0ACF97B68012B09D87B689B00084A944663441B681B041B0CFB60CD
:400E400001E00023FB60FB689BB21BB2181CBD4604B080BD80013A4080B582B000AF044B1B687B60024B7A681A60BD4602B080BD10023A4080B582B000AF786000F04AF869
:400E80007B68181C00F008F8032000F011F800F037F8BD4602B080BD80B582B000AF7860024B7A685A64BD4602B080BD0000002090B585B000AF021CFB1D1A700E23FB609C
:400EC0000B23FC1800F045F8031C23700A4B0A4A12680A491140FA1D1078FA689040021C0A431A600B23FB181B78181C00F035F8BD4605B090BDC04600E400E0FF3FFFFF24
:400F000080B500AF024B02221A60BD4680BDC04600E100E080B500AF024B02221A60BD4680BDC04680E100E080B500AF024B802212021A60BD4680BD00E100E00000000023
:400F40000230800803D00138FDD1C046C046C0467047EFF3108072B6704780F31088704790B58BB000AF78602723FC18FFF7F1FF031C2370184B1A680C23FB181A60174B01
:400F80001A680C23FB185A607B68033B144AD35C1A1C0C23FB189A60124B1A680C23FB18DA601C23FB18104A1A600C23FA181C23FB185A600D4B1C22BA181A600C4B0D4A35
:400FC0001A600A4B1B682723FB181B78181CFFF7C4FFBD460BB090BD08010B4000010B40B821000030001040B6EA000008001040040010401700008080B584B000AF7860EB
:401000000023FB60154B154A126801210A431A60134B144A1A60144B134A1268802109020A431A607B68002B12D01023FB600CE0012000F0AFF800F019F8031E02D00023F8
:40104000FB6005E07B68013B7B607B68002BEFD1FB68181CBD4604B080BDC04660F02E4078002E400220000010002E4080B582B000AF054B1B68012213407B607B68181C42
:40108000BD4602B080BDC0460C002E4080B584B000AF021C3960FB1D1A7080239B05FB60FB1D1B781F2B02D9002000F069F8FB1D1B7810339B00FA68D3181B68BB60FB1DE2
:4010C0001B7810339B00FA68D3183A681A60BB68181CBD4604B080BD90B587B000AF021CFB1D1A70BB1D0A1C1A70BB1D1B78032B02D9002000F044F8FB1D1B781F2B02D9C8
:40110000002000F03DF8FB1D1B7803221340DB0006337B611323FC18FFF71BFF031C2370FB1D1B789B08DBB29B00144A944663441B68FB607B6903229A40131CDA43FB6886
:401140001340FB60BB1D1A787B699A40131CFA681343FB60FB1D1B789B08DBB29B00074A94466344FA681A601323FB181B78181CFFF7F3FEBD4607B090BDC04600E400E06B
:4011800080B582B000AF021CFB1D1A7001BEBD4602B080BD80B582B000AF021CBB1D1A80BB1D1B88044A12785343181CFFF7C8FEBD4602B080BDC046B001002080B500AF7C
:4011C0000E4B0E4A126801218A431A600B4B0B4A126802218A431A60094B094A126830218A4310210A431A60054B054A126807218A4301210A431A60BD4680BD00F02E4000
:4012000000FF2E4080B500AF0E4B0E4A126802218A431A600C4B0C4A126807218A4302210A431A60084B084A126830218A4320210A431A60034B034A126801210A431A607F
:40124000BD4680BD00F02E4000FF2E4080B500AFFFF7B4FF044B044A1268802109060A431A60BD4680BDC04600F02E4080B584B000AF78600C4B1B6801221340FB607B6826
:40128000002B02D0012B03D005E0FFF797FF06E0FFF7B8FF03E00020FFF772FFC046FB68181CBD4604B080BD00F02E4003460B437FD4002243088B4274D303098B425FD35F
:4012C000030A8B4244D3030B8B4228D3030C8B420DD3FF22090212BA030C8B4202D31212090265D0030B8B4219D300E0090AC30B8B4201D3CB03C01A5241830B8B4201D3CB
:401300008B03C01A5241430B8B4201D34B03C01A5241030B8B4201D30B03C01A5241C30A8B4201D3CB02C01A5241830A8B4201D38B02C01A5241430A8B4201D34B02C01AF9
:401340005241030A8B4201D30B02C01A5241CDD2C3098B4201D3CB01C01A524183098B4201D38B01C01A524143098B4201D34B01C01A524103098B4201D30B01C01A52417B
:40138000C3088B4201D3CB00C01A524183088B4201D38B00C01A524143088B4201D34B00C01A5241411A00D201465241104670475DE0CA0F00D04942031000D34042534041
:4013C00000229C4603098B422DD3030A8B4212D3FC22890112BA030A8B420CD3890192118B4208D3890192118B4204D389013AD0921100E08909C3098B4201D3CB01C01AC2
:40140000524183098B4201D38B01C01A524143098B4201D34B01C01A524103098B4201D30B01C01A5241C3088B4201D3CB00C01A524183088B4201D38B00C01A5241D9D2B4
:4014400043088B4201D34B00C01A5241411A00D20146634652415B10104601D34042002B00D54942704763465B1000D3404201B5002000F00BF802BD0029F8D003B5FFF72F
:4014800015FF0EBC4243891A1847C0467047C046F0B5454657464E4694464C000A03C90FE0B488460E1C1903470FC500480A6146490F01436046520A1743C0005A00640D59
:4014C000520DDB0F8446984500D1A7E0A01A002800DC01E1002A3DD163460B4300D0D4E06B0700D188E00F232B40042B00D183E02A1DAA42AD4180236D427F191B043B4001
:401500004646151C002B00D17CE0CC4B01349C4200D1FDE03A1CCA4BED081A405007640552020543120B640D002112030B0D1B056405120B1A436308C24CF60714401C43A0
:40154000640064083443281C211C1CBC90469946A246F0BDB94B9C42C2D080231B041943382800DDECE01F2800DD21E120220E1C6346121A9640C340334366469640321C60
:40158000561EB24113430A1CC240EB1A9D42B6411D1CBA1A7642971B3B0200D497E07A02560A002E00D1B6E0301C00F0A5FD031C083B1F2B00DDB7E09E40371C28262A1C38
:4015C000361AF240161C9D403E439C4200DDB2E01C1B621C1F2A00DDD8E01F23291C1C1B331CA540A340D1406C1EA541D64019430D43371C002473E780231B043B40464647
:4016000000D082E78D4BED0878070543FA089C4232D012036405120B640D85E7A31A002B00DC94E0002A3CD0844A944200D157E7802212041143382B00DC05E1634619432C
:40164000481E81410022C8B24019A8429B41051CD2195B42D7183B0239D5784B01349C4200D14CE10120764A6B083A4028401843D5070543570833E72B1C134348D080234A
:401680001B031A431203120B4EE70138002878D16346EE1AB5429B417A1A5B42D71A351C7AE7021C0A4300D11AE7013B002B00D0F2E04019A8429B41CA195B42D718051C51
:4016C000C9E7131C334300D118E1171C351C46466B0700D007E795E700287AD1621C5205520D012A00DCFBE06246AA1A9542B6419146781A7242861A320200D493E062466C
:40170000551BAC458041CF1B40423E1A984648E70022002508E7281C00F0EEFC2030031C083B1F2B00DC47E7283885402E1C00259C4200DC4CE7424AE41A1640371CCFE6F3
:40174000634619434B1E99410022CBB21DE7002B00D0F2E0601C43055B0D012B00DCA4E0364B984200D121E163465C19AC429B41CF195B42FA186408D50725435708041C1D
:40178000AEE62E4B9C4200D0EAE6A9E6211C331C1F39CB40191C202A00D182E03F231C1BA64035436E1EB54100270D4300248EE7031C0E1C203BDE40202874D040231B1AFF
:4017C00099400B1C62461343591E8B4100223343DBE6002C50D0194CA24200D1A8E08024240440422743382800DDD9E01F2800DD39E120243E1C241AA640B0462E1CA1468C
:40180000C640444626434C46A5406C1EA541C74035436046451BCF1BAC45894149427F1A141C9846B8E64B464D46334300D0B8E60026002700240025E4E6C046FF0700005A
:40184000FFFF7FFFFFFF0F801F2B5BDC2022081CD21A9040814660469246D8404A4610438146524660469040021C501E8241484610430A1CDA40E7E63C1C2C4358D0C04378
:40188000002851D16046451BAC458041CF1B40423F1A141C98467FE68F4A944200D0CAE61EE600267DE700238CE73B1C2B43002C00D0BDE0002B00D1F5E063460B4300D1A4
:4018C0000EE663465B19AB428041CA19404217183A0200D4FCE0814A1D1C17400134FFE53A1C2A43002C51D1002A00D085E062460A4303D00F1C65469846F1E50026002726
:4019000000257FE6181C0A1C2038C240202B00D1A7E04020C01A8140081C63461843411E8841104300228FE66B4CA24200D05AE70F1C6546141C9846D2E5002C3AD1381CBF
:40194000284371D0DB43002B18D0634882426BD0382B00DD9DE01F2B00DDA7E020203C1CC01A8440A1462C1C8246DC404846044350468540681E8541DF40254365446545D6
:401980009B417F185B42FF18141C64E6002A19D162460A4377D00F1C654698464E4C9FE53D436F1EBD410027EDB232E7041C0027002527E64848824236D0802000045B4266
:4019C0000743C5E762460A4349D08024ED087807FA0824032843224209D0CE08264206D162464F07381CD20810439846321CD200470F1743C500384C72E562460A4300D152
:401A00006EE56246AE1AB5429241781A5242821A100200D455E66246551BAC458041CA1B4042171A98465BE50F1C6546141C57E5002B34D063460B4311D08024ED08780755
:401A4000FA08240328432242D1D0CB082342CED162464F07381CD20810431A1CC7E71E4C3EE5002059E7041C3E1C203CE640341C20282BD04026301A87403D436F1EBD4195
:401A800000272543C5E680270026FF03124C0025B8E53D436F1EBD410027EDB26EE70F1C65460D4C1CE50F1C654619E51C1C381C203CE040041C202B0CD04020C31A9F4068
:401AC0003D436F1EBD410027254357E70027D4E71D1CFCE50027F3E7FF070000FFFF7FFFF0B55F4656464D464446F0B4051C061C080387B099464F00030BCC0F92469B4693
:401B00007F0D019467D06C4B9F4236D080205B4640031843C0006B0F1843684B83469C4600239846EE00674400934B4649461D03C90F5B0052462D0B5B0D894600D16EE017
:401B40005D498B4264D080205C4940038C4600210543ED00500F0543D20063444846FF187B1C9A46009B604002900B430F2B00D9ACE053489B00C3589F465B461D4300D011
:401B800082E00823009300239B46023300269846CBE7029B01934346022B59D1012400250026019B1C40444B00212D030A0D12052D0B1543434A1B0515401D436D00E40745
:401BC0006D082543301C291C07B03CBC90469946A246AB46F0BD2B434ED05B46002B00D185E1584600F088FA021C2823291C9B1A161C5846D940083EB0400B1CB54003430A
:401C00009B462E1C0023304F0093BF1A98468CE7514629432ED10025002202219EE75146294323D0002D00D154E1281C00F064FA031C28215046C91A1A1CC8405146083A76
:401C4000914095400A1C05431F480021C31A85E7032B00D1C2E1012B00D06DE14446019B00251C40E4B2002300269DE700250022012173E7032171E70423009300239B468C
:401C800001330026984650E70C230093093B98464BE7802500242D030026074B84E74B46AB46161C0193884675E7029BAB46161C019388466FE7C046FF07000001FCFFFFD2
:401CC000E8210000FFFF0F800DFCFFFF330C3604360C9C46331C140C1204120C53439846634653439946634663430193331C41466343090C4B445B18994505D98020400261
:401D00008146019949440191190C039141460904090C1B045B1804932B0C9846331C2D04290C4B43604600934346654658435E43009B4D431B0C9946AE194E448446B5424C
:401D400003D980235B029946CC44350C2B1C0398634484460593009B36041B041B0CF3189C446046039058460504060C280C84465043351C81466046654344434846000C5C
:401D80008346724314195C44A24203D98022520293465D44220CAD184A461204120C24044046A41862464A437143464360460096464670438046100C84468844E044414578
:401DC00005D9802149028C46009961440091019803998446614499429B415B4299460598434684461204120C1B049B1863449C46AB4683429B4140460A19CC44A242894129
:401E0000E344CC45B6415C46000C8046494276425B426418334398448C428941AB459B4149425B4219430D1C009B4544EE187602E50D2E43B346049B56021E43731E9E417A
:401E40005B46D20D324366021643DB010AD50123334076081E435B46DB071E435B465B089B465746634BFB18002B5ADD720709D00F223240042A05D0321DB242B641764208
:401E8000B344161C5A46D20106D55A465A4B1A4080239346DB00FB18584A934234DD0124029B00251C400026554B7DE680205B460003034208D0054206D105432D032D0B7F
:401EC0004C46161C4E4B6FE65D4605432D032D0B4B4B69E6504600F00FF9031C2033272B00DCA6E65546083885400022ACE6281C00F002F9021C2032272A00DC75E6083883
:401F000085400026AB467DE65A46F608520716435A4601245502029A5B052D0B5B0D144042E6384DED1B382D0ADD0124029B00251C400026002337E6019B5746029391E716
:401F40001F2D25DC304B321C9C466744BE405B46BB40371CEA407E1EB74113433B431E1C5B46EB401D1C730709D00F233340042B05D0331DB342B6417642AD191E1C2B02E3
:401F800020D50124029B00251C40002601230BE65A461E4BDB1BDA40131C202D1CD01C4A94465A466744BA40171C3E43721E96411E4307230025334007D00F2300253340C9
:401FC000042BD6D16B076D022D0B0124F6081E43029B1C400023E7E50027E6E780255B4601242D031D43019B2D0323401C1C2D0B034BD9E5FF030000FFFFFFFEFE070000EA
:40200000FF07000002FCFFFF1E040000E2FBFFFF3E0400000B0330B5134C1A0B4B00051C5B0DC90F0020A34210DD104883420EDC80200F4C40030243E41A1F2C0ADD0D483B
:40204000C31ADA40131C48424340581830BD0A4BC818FBE7281CE040084CA44663449A40131C0343EFE7C046FE0300001D0400003304000013040000FFFFFF7FEDFBFFFF73
:4020800038B5041E16D0C50F00D04442201C00F033F8174B1B1A0A2821DC021C211C153291400A1C0B21081AC4405B052403240B5B0D03E000250023002400220021101C1D
:4020C00024030A0D1205240B14430A4A1B0514401C436400ED0764082C43211C38BD0B3884405B052403240B5B0D0022E6E7C0461E040000FFFF0F801C2101231B04984256
:4021000001D3000C10391B0A984201D3000A08391B09984201D30009043902A2105C40187047C046040302020101010100000000000000000E4B70B500251E1C0D4CE41AD8
:40214000A410A54204D0AB00F35898470135F8E700F06AF8084B00251E1C084CE41AA410A54204D0AB00F35898470135F8E770BD3422000034220000342200003C220000CA
:40218000031C8218934202D019700133FAE770470000000000300F40000400400F40000404410F402F086F08CA20DA80000400000004000000010000030405060708090A91
:4021C0000B0C0E0F101112131415161718191B1C1D1E1F2021222325262728292A2B2E2F3031323334350000CC1C0000AA1C0000AA1C00009E1C0000921B0000921B00009B
:40220000921C00009E1C0000921B0000921C0000921B00009E1C0000961B0000961B0000961B0000AC1E0000F8B5C046F8BC08BC9E46704781020000D1080000F8B5C046C2
:40224000F8BC08BC9E4670475902000060220000C8000020F0000000300100000000000000000000000000009A9999999999B93F9A9999999999B93F9A9999999999B93FB8
:402280009A9999999999B93F9A9999999999B93F9A9999999999B93F9A9999999999B93F9A9999999999B93F9A9999999999B93F9A9999999999B93F9A9999999999B93FA6
:4022C0009A9999999999B93F9A9999999999B93F9A9999999999B93F9A9999999999B93F9A9999999999B93F9A9999999999B93F9A9999999999B93F9A9999999999B93F66
:402300009A9999999999B93FBE30992A1895943FBE30992A1895A43FBE30992A1895943F000000000000F03F60E5D022DBF9F8BFD8F0F44A5986E43F010000000000000071
:4023400000366E01C05D0000180000000000E02E00000000000000000000000000000000000000000000000000000000000000000000000000000000000000000000000075
:40238000000000000000000000000000000000000000000000000000000000000000000000000000000000000000000000000000000000000000000000000000000000001D
:4023C00000000000000000000000000000000000000000000000000000000000000000000000000000000000000000000000000000000000000000000000000000000000DD
:40240000000000000000000000000000000000000000000000000000000000000000000000000000000000000000000000000000000000000000000000000000000000009C
:40244000000000000000000000000000000000000000000000000000000000000000000000000000000000000000000000000000000000000000000000000000000000005C
:020000040001F9
:0200000490303A
:0200000076A6E2
:0200000490402A
:4000000000000000000000000000000000000000000000000000000000000000000000000000000000000000000000000000000000000000000000000000000000000000C0
:400040000000000000000000000000000000000000000000000000000000000000000000000000000000000000000000000000000000000000000000000000000000000080
:0200000490501A
:0C00000000020E34119E00010E3F8844E7
:0200000490600A
:0100000001FE
:00000001FF