:400000000040002011000000D1030000D103000008B500F0DFF9C04608B512221A4B1A60302000F083FD194A194B1A60BC229201184B1A60184B194A1A608822920118491F
:400040000A601849196018490A60184A1A6080221206174B1A608022D202164B1A604222154B1A60023A154B1A600132144B1A600720144900F0BCFC072000F0ADFC002240
:40008000114B1A6008BDC046300010400600008004010B40080301400000014042FF00800003014040FF00800403014041FF008008010B4000010B402C010140140101408C
:4000C0000C010140890C00000C020B4010B572B6002410E0244863001A195200821891881B195B001A5AC31858880004104300F0E9F90134E4B2012CECD91B49081C0C3054
:40010000203100F0B5F9194A194B1A609922194B1A6099221204184B1A60184A184B1A60184A10780223022101431170164C21783C208143283801432170107816210143BF
:400140001170124A13601249124A1160124A1360124A13603121124A1160124A1360FFF75BFF00F09FF910BD3826000099EE0000000302400007024030500F401FFF0F0067
:400180002001204000700F4001700F4000030440B10D0000080304401803044000070440080704401807044010B5064C2378002B07D1054B002B02D0044800E000BF01237A
:4001C000237010BDC0010020000000003426000008B5084B002B03D00748084900E000BF07480368002B00D108BD064B002BFBD09847F9E70000000034260000C401002057
:40020000C80000200000000008B500F00DFB044B1A681A60FF23184000F0C0F908BDC046C00F254008B500F03FFB014B188008BDE001002038B502F01DF9234B9863D96389
:40024000224B002000219865D96500216022995215E023B2DB001E4AD218106B516B1A4AD3189A6BDB6B01F0BBFA184DAA6DEB6D00F074FEA865E96501346023EC5260238F
:40028000124AD45A23B2132BE3DD12216023D1520EE013B25C1C0C4DDB00EB18986BD96BE300EB189863D963013A60230749CA526023064AD25A13B2002BEADA034B986D12
:4002C000D96D00F02DFE38BDE001002060020020D000002030B583B000F0C4F9C0B2294B1A681A606223284AD35C002B05D1274B188001216223D15442E0012B40D1234DC2
:4003000000022B88C01828801F4C00226223E254002000F035FB0023E85EFFF78BFF80B21B4B18806425625B231C64335A806053012000F025FB635FE02B18DD124B643357
:4003400002229B5EE02B12DC0F4A6823D05A013080B2D05200B201A90A2202F022F900F079FA0A2000F0FCF90D2000F0F9F9084C0023E05E00F012F90120205600F00EF980
:4003800003B030BDC00F27406002002000030020F802002008B562B60A4800F0E3FA0A4800F0BCF8094800F09BF900F0D9F800F0B9F900F0A1FA00F0C5FA00F0F7FB00204A
:4003C00008BDC04625020000D502000009020000FEE7C04670B50F4E0F4D13E029686B68AC68002202E001C901C30432A242FAD1E868002202E0002102C304328242FAD17F
:400400001035013E002EE9D102F08EF8FFF7C2FFFEE7C046010000004027000008B50F4A136801218B43136000230AE0032B03D89A000B49505800E00A4899000A4A885037
:4004400001332F2BF2D9FFF741FE0022074B1A60024A116801230B43136008BD0000104000000000D103000000000020C0000020F0B50025002711E0BB00C658F3B2FF22EC
:40048000964308E06A008A181478A419527822700135013BDBB2002BF4D10137042FEBD9F0BDC0460323044A1360044A13600022034B1A607047C046300030403000314069
:4004C000000E3F4008B50A1C002102F077F808BD014BD8667047C0460000002010B5041C00F05FFA044A13689B009B08A4071C43146000F05AFA10BD08E400E08022120199
:40050000014B1A607047C04600E100E080221201014B1A607047C04680E100E010B5041CFFF7F4FF201CFFF7D3FF0320FFF7D6FFFFF7E4FF10BDC04608B500F089F808BD9F
:4005400008B500F039F808BD08B5044A1368802109060B431360FFF7EFFF08BD0000274008B5064B1B78002B04D1FFF7E9FF0122024B1A70FFF7E8FF08BDC046D8020020B6
:40058000014B18687047C04640032740024B1B681F2018407047C04608032740044B1B681F221340082BF9D0024B18607047C046080227404002274010B5134A134B1A607A
:4005C0000023134A13600121124A1160124A13480260072412480460124803601248016012490A60124A1360042212490A6012490B6012490B6012490B6012490B601249AD
:400600000A60124A136010BD0B0000020000274040002740480027400700008000032740040327401003274044002740000227400402274050002740880E2740C80E27409F
:40064000480F2740080F2740C80F2740880F274003490B68F0229343603A13430B6070470007024008B5FFF791FF002802D0FFF787FF00E00020054B1A68D8239B001A4283
:4006800003D01A1C014B1A60002008BDC00F2740014B58667047C0460000002010B5041C00F07FF9044A1168044B0B40A4031C43146000F07AF910BD08E400E0FF3FFFFF09
:4006C00080229200014B1A607047C04600E100E080229200014B1A607047C04680E100E010B5041CFFF7F4FF201CFFF7D1FF0320FFF7D4FFFFF7E4FF10BDC04608B500F075
:4007000089F808BD08B500F039F808BD08B5044A1368802109060B431360FFF7EFFF08BD0000254008B5064B1B78002B04D1FFF7E9FF0122024B1A70FFF7E8FF08BDC046AA
:40074000D9020020014B18687047C04640032540024B1B681F2018407047C04608032540044B1B681F221340082BF9D0024B18607047C046080225404002254010B5134A9D
:40078000134B1A600023134A13600121124A1160124A13480260072412480460124803601248016012490A60124A1360042212490A6012490B6012490B6012490B601249D9
:4007C0000B6012490A60124A136010BD0B0000020000254040002540480025400700008000032540040325401003254044002540000225400402254050002540880E25406B
:40080000C80E2540480F2540080F2540C80F2540880F254003490B68F0229343603A13430B6070470003024008B5FFF791FF002802D0FFF787FF00E00020054B1A68D82389
:400840009B001A4203D01A1C014B1A60002008BDC00F254038B5051C002402E0FFF780FF0134285D0028F9D138BDC04608B500F098F8044A116801230B43136000F095F803
:4008800008BDC046000020400004000C014B18607047C046080120400004000C014B18607047C04614012040024B18680004000C7047C0460C012040014B18607047C04685
:4008C0003801204008B580229204084B1A608E225200074B1A600220FFF7EEFF0548FFF7DBFF0020FFF7D0FF08BDC0460001204024012040FFFF000008B5064B1B78002B4D
:4009000004D1FFF7DFFF0122024B1A70FFF7AEFF08BDC046DA0200208C23014AD05070470000002010B5041C00F03BF8044A13689B009B08A4071C43146000F036F810BD41
:4009400010E400E080221203014B1A607047C04600E100E080221203014B1A607047C04680E100E010B5041CFFF7F4FF201CFFF7D3FF0320FFF7D6FFFFF7E4FF10BDC046C1
:40098000014B18707047C04670000F40000000000230800803D00138FDD1C046C046C0467047EFF3108072B6704780F310887047024A1168024B0B4013607047000022408E
:4009C000FFFFFFBF034B18688023DB05184000D001207047000022401F2318401E3B8340181C014B1860704700E100E001BE704738B5041C0D1C1F2802D90020FFF7F6FF89
:400A0000A400034B9C4664442068256038BDC0464000002010B5041C06E0084B1868FFF7B7FF074B9C46644480231B029C42F4D8024B58686043FFF7ABFF10BDA80100205C
:400A40000080FFFF30B583B000F0C8F8002856D0FFF7A7FF041C00230AE02A4A11683F220A402949C95C8A4201D1033303E001332D2BF2D90323254A1268D20606D12348B3
:400A800002681F218A4313390A430260204A1168204A1140204A5A438020C00184466244D20B013A5205520D0A43A02149031143192B02D819490A430BE0194A9A1812787B
:400AC0001148C3189B7DD218FF2A00D9FF2292050A430F4B1A60134D2B680193302000F025F9114A13688021C9050B4313601420FFF790FF019B2B60201CFFF756FF03B0E0
:400B000030BDC0462CFF0B406C26000034FF0B400800224000F800C040420F000000D43FCDF1FF0F300010400000224030B587B0041CFFF736FF051CFFF744FF002803D00C
:400B4000FFF736FF012100E00021104B1B6800930F4B1B680193033C0E4B1B5D02930E4B1B68039304AA0D4B04936B4605930C4B1A600C480C4A10601B68012901D1FFF7E8
:400B800061FF281CFFF711FF07B030BD08010B4000010B406C26000030001040B6EA000008001040170000800400104008B5FFF7F8FE044A136804218B43136030BFFFF795
:400BC000F4FE08BD10ED00E0034B1868C0231B02184000D00120704700010B40034B1B68002B01DA012000E0002070470000224008B5FFF7D6FE044A1368C02109020B43AC
:400C00001360FFF7D2FE08BD00010B4010B5FFF7C8FE08490A68084B1A408024E40122430A600A6813408022120213430B60FFF7BCFE10BD00010B40FF3FFFFF70B5061C99
:400C4000FFF7AFFE041CFFF7BFFF002803D0FFF7DDFF012500E000250848331C0340084A106808490840184310601368012D01D1FFF7BEFF201CFFF798FE70BD04040400C6
:400C800010020B40FBFBFBFF10B5244B1B685B0715D5234B1B685B070ED5224B9969042001401F4C22688A4322609A6982439A61DB68002B00D098470420FFF7BFFF174B7C
:400CC0001B685B0518D5164B1B685B0510D5154B99698022D2001140114802688A4302609969114A0A409A611B69002B00D098478020C000FFF7A2FF084B1B685B030CD5D6
:400D0000074B1B685B0304D5064B5B69002B00D098478020C002FFF791FF10BD10020B40B8010020DC020020FFFBFFFF38B5041CFFF737FE051C102C05D8104A136803216C
:400D40008B43136016E0202C07D80C490B6803229343023A13430B600CE0302C07D807490B6803229343013A13430B6002E00020FFF73CFE281CFFF718FE38BD3000104079
:400D8000002243088B4274D303098B425FD3030A8B4244D3030B8B4228D3030C8B420DD3FF22090212BA030C8B4202D31212090265D0030B8B4219D300E0090AC30B8B42C2
:400DC00001D3CB03C01A5241830B8B4201D38B03C01A5241430B8B4201D34B03C01A5241030B8B4201D30B03C01A5241C30A8B4201D3CB02C01A5241830A8B4201D38B0283
:400E0000C01A5241430A8B4201D34B02C01A5241030A8B4201D30B02C01A5241CDD2C3098B4201D3CB01C01A524183098B4201D38B01C01A524143098B4201D34B01C01AF7
:400E4000524103098B4201D30B01C01A5241C3088B4201D3CB00C01A524183088B4201D38B00C01A524143088B4201D34B00C01A5241411A00D20146524110467047FFE753
:400E800001B5002000F00CF802BDC0460029F7D003B5FFF775FF0EBC4243891A1847C0467047C0468446101C62468C46191C634600E0C0461FB500F02DFC002801D400213E
:400EC000C8421FBD10B500F071FB4042013010BD10B500F01FFC002801DB002010BD012010BDC04610B500F015FC002801DD002010BD012010BDC04610B500F09BFB002896
:400F000001DC002010BD012010BDC04610B500F091FB002801DA002010BD012010BDC04638B500220C4B041C0D1CFFF7EFFF002804D1201C291C01F067FA38BD064B002203
:400F4000201C291C00F0E6FE01F05EFA80231B069C466044F1E7C0460000E041F0B5454657464E4694464C000A03C90FE0B488460E1C1903470FC500480A6146490F0143C6
:400F80006046520A1743C0005A00640D520DDB0F8446984500D1A7E0A01A002800DC01E1002A3DD163460B4300D0D4E06B0700D188E00F232B40042B00D183E02A1DAA42D1
:400FC000AD4180236D427F191B043B404646151C002B00D17CE0CC4B01349C4200D1FDE03A1CCA4BED081A405007640552020543120B640D002112030B0D1B056405120BFA
:401000001A436308C24CF60714401C43640064083443281C211C1CBC90469946A246F0BDB94B9C42C2D080231B041943382800DDECE01F2800DD21E120220E1C6346121A3E
:401040009640C340334366469640321C561EB24113430A1CC240EB1A9D42B6411D1CBA1A7642971B3B0200D497E07A02560A002E00D1B6E0301C01F039FA031C083B1F2B05
:4010800000DDB7E09E40371C28262A1C361AF240161C9D403E439C4200DDB2E01C1B621C1F2A00DDD8E01F23291C1C1B331CA540A340D1406C1EA541D64019430D43371C9A
:4010C000002473E780231B043B40464600D082E78D4BED0878070543FA089C4232D012036405120B640D85E7A31A002B00DC94E0002A3CD0844A944200D157E780221204A9
:401100001143382B00DC05E163461943481E81410022C8B24019A8429B41051CD2195B42D7183B0239D5784B01349C4200D14CE10120764A6B083A4028401843D5070543E2
:40114000570833E72B1C134348D080231B031A431203120B4EE70138002878D16346EE1AB5429B417A1A5B42D71A351C7AE7021C0A4300D11AE7013B002B00D0F2E040191B
:40118000A8429B41CA195B42D718051CC9E7131C334300D118E1171C351C46466B0700D007E795E700287AD1621C5205520D012A00DCFBE06246AA1A9542B6419146781AD2
:4011C0007242861A320200D493E06246551BAC458041CF1B40423E1A984648E70022002508E7281C01F082F92030031C083B1F2B00DC47E7283885402E1C00259C4200DC4B
:401200004CE7424AE41A1640371CCFE6634619434B1E99410022CBB21DE7002B00D0F2E0601C43055B0D012B00DCA4E0364B984200D121E163465C19AC429B41CF195B4288
:40124000FA186408D50725435708041CAEE62E4B9C4200D0EAE6A9E6211C331C1F39CB40191C202A00D182E03F231C1BA64035436E1EB54100270D4300248EE7031C0E1CA0
:40128000203BDE40202874D040231B1A99400B1C62461343591E8B4100223343DBE6002C50D0194CA24200D1A8E08024240440422743382800DDD9E01F2800DD39E12024D9
:4012C0003E1C241AA640B0462E1CA146C640444626434C46A5406C1EA541C74035436046451BCF1BAC45894149427F1A141C9846B8E64B464D46334300D0B8E6002600271A
:4013000000240025E4E6C046FF070000FFFF7FFFFFFF0F801F2B5BDC2022081CD21A9040814660469246D8404A4610438146524660469040021C501E8241484610430A1C77
:40134000DA40E7E63C1C2C4358D0C043002851D16046451BAC458041CF1B40423F1A141C98467FE68F4A944200D0CAE61EE600267DE700238CE73B1C2B43002C00D0BDE0A9
:40138000002B00D1F5E063460B4300D10EE663465B19AB428041CA19404217183A0200D4FCE0814A1D1C17400134FFE53A1C2A43002C51D1002A00D085E062460A4303D0A9
:4013C0000F1C65469846F1E50026002700257FE6181C0A1C2038C240202B00D1A7E04020C01A8140081C63461843411E8841104300228FE66B4CA24200D05AE70F1C65467E
:40140000141C9846D2E5002C3AD1381C284371D0DB43002B18D0634882426BD0382B00DD9DE01F2B00DDA7E020203C1CC01A8440A1462C1C8246DC404846044350468540F1
:40144000681E8541DF402543654465459B417F185B42FF18141C64E6002A19D162460A4377D00F1C654698464E4C9FE53D436F1EBD410027EDB232E7041C0027002527E620
:401480004848824236D0802000045B420743C5E762460A4349D08024ED087807FA0824032843224209D0CE08264206D162464F07381CD20810439846321CD200470F174362
:4014C000C500384C72E562460A4300D16EE56246AE1AB5429241781A5242821A100200D455E66246551BAC458041CA1B4042171A98465BE50F1C6546141C57E5002B34D025
:4015000063460B4311D08024ED087807FA08240328432242D1D0CB082342CED162464F07381CD20810431A1CC7E71E4C3EE5002059E7041C3E1C203CE640341C20282BD06C
:401540004026301A87403D436F1EBD4100272543C5E680270026FF03124C0025B8E53D436F1EBD410027EDB26EE70F1C65460D4C1CE50F1C654619E51C1C381C203CE0408E
:40158000041C202B0CD04020C31A9F403D436F1EBD410027254357E70027D4E71D1CFCE50027F3E7FF070000FFFF7FFFF0B55F464D4644465646F0B41F035C00DB0F994683
:4015C0001B4B0E034D00C90F8446360B6D0D8B4690463F0B640D9D420CD0154B9C4210D00123A54214D0181C3CBC90469946A246AB46F0BD311C01230143F4D10C4B9C428A
:40160000EED13A430123002AEDD10123A542EAD1BE42E8D1C445E6D1CB4506D0002DE2D13043031C581E8341DDE70023DBE7C046FF070000F0B5574645464E46E0B40F03D5
:401640004E00C90F8A4632491D035C0084463F0B760D90462D0B640DDB0F8E420FD08C4239D0002E10D13843414241418946002C27D12A4325D1002000290ED108E0391CAD
:4016800001432ED1B44226D0002C0BD09A450DD05346594201231943081C1CBC90469946A246F0BD2A43F3D09A45F1D1A642EFDC1ADA504641424841012341421943081CFD
:4016C000EBE74A46002AE1D058425841012241421143081CE1E7291C114302D1002EC2D0D4E702204042D8E7AF42D1D809D00020AF42D2D25046414248410123404218437F
:40170000CBE7C445C4D80020C445F3D3C5E7C046FF070000F0B55F464D46444656468046F0B4061C0803000B84462C484C001F035D00C90F640D8B4691463F0B6D0DDB0F5E
:40174000844212D0854225D0002C14D161460E4370424641002D35D0002E21D058425841012143420B43181C0EE06146022031430AD1A5420ED0002D12D13A4310D15B463C
:40178000594201231943081C3CBC90469946A246AB46F0BD391C02201143F5D1002CD5D09B45ECD1AC42EADC05DBBC45E7D80FD00020BC45E8D2584641424841414201205C
:4017C0000843E1E73A43C7D10020002EDCD1D6E7C845D4D80020C845EDD3D5E7FF070000F0B55F4656464D464446F0B4051C061C080387B099464F00030BCC0F92469B46A5
:401800007F0D019467D06C4B9F4236D080205B4640031843C0006B0F1843684B83469C4600239846EE00674400934B4649461D03C90F5B0052462D0B5B0D894600D16EE01A
:401840005D498B4264D080205C4940038C4600210543ED00500F0543D20063444846FF187B1C9A46009B604002900B430F2B00D9ACE053489B00C3589F465B461D4300D014
:4018800082E00823009300239B46023300269846CBE7029B01934346022B59D1012400250026019B1C40444B00212D030A0D12052D0B1543434A1B0515401D436D00E40748
:4018C0006D082543301C291C07B03CBC90469946A246AB46F0BD2B434ED05B46002B00D185E1584600F002FE021C2823291C9B1A161C5846D940083EB0400B1CB54003438F
:401900009B462E1C0023304F0093BF1A98468CE7514629432ED10025002202219EE75146294323D0002D00D154E1281C00F0DEFD031C28215046C91A1A1CC8405146083AFC
:40194000914095400A1C05431F480021C31A85E7032B00D1C2E1012B00D06DE14446019B00251C40E4B2002300269DE700250022012173E7032171E70423009300239B468F
:4019800001330026984650E70C230093093B98464BE7802500242D030026074B84E74B46AB46161C0193884675E7029BAB46161C019388466FE7C046FF07000001FCFFFFD5
:4019C000B4260000FFFF0F800DFCFFFF330C3604360C9C46331C140C1204120C53439846634653439946634663430193331C41466343090C4B445B18994505D98020400293
:401A00008146019949440191190C039141460904090C1B045B1804932B0C9846331C2D04290C4B43604600934346654658435E43009B4D431B0C9946AE194E448446B5424F
:401A400003D980235B029946CC44350C2B1C0398634484460593009B36041B041B0CF3189C446046039058460504060C280C84465043351C81466046654344434846000C5F
:401A80008346724314195C44A24203D98022520293465D44220CAD184A461204120C24044046A41862464A437143464360460096464670438046100C84468844E04441457B
:401AC00005D9802149028C46009961440091019803998446614499429B415B4299460598434684461204120C1B049B1863449C46AB4683429B4140460A19CC44A24289412C
:401B0000E344CC45B6415C46000C8046494276425B426418334398448C428941AB459B4149425B4219430D1C009B4544EE187602E50D2E43B346049B56021E43731E9E417D
:401B40005B46D20D324366021643DB010AD50123334076081E435B46DB071E435B465B089B465746634BFB18002B5ADD720709D00F223240042A05D0321DB242B64176420B
:401B8000B344161C5A46D20106D55A465A4B1A4080239346DB00FB18584A934234DD0124029B00251C400026554B7DE680205B460003034208D0054206D105432D032D0B82
:401BC0004C46161C4E4B6FE65D4605432D032D0B4B4B69E6504600F089FC031C2033272B00DCA6E65546083885400022ACE6281C00F07CFC021C2032272A00DC75E608388C
:401C000085400026AB467DE65A46F608520716435A4601245502029A5B052D0B5B0D144042E6384DED1B382D0ADD0124029B00251C400026002337E6019B5746029391E719
:401C40001F2D25DC304B321C9C466744BE405B46BB40371CEA407E1EB74113433B431E1C5B46EB401D1C730709D00F233340042B05D0331DB342B6417642AD191E1C2B02E6
:401C800020D50124029B00251C40002601230BE65A461E4BDB1BDA40131C202D1CD01C4A94465A466744BA40171C3E43721E96411E4307230025334007D00F2300253340CC
:401CC000042BD6D16B076D022D0B0124F6081E43029B1C400023E7E50027E6E780255B4601242D031D43019B2D0323401C1C2D0B034BD9E5FF030000FFFFFFFEFE070000ED
:401D0000FF07000002FCFFFF1E040000E2FBFFFF3E040000F0B54D4644465F465646F0B40E1C111C3203520A470F1743C5001A035800DB0F9946520A4B0F83B01A43CB000F
:401D40000193CF4B7400F60F640DB046400D984200D1E8E00123494659400B1C9E4200D1B1E0261A002E00DC1CE1002842D1131C01990B4300D0E6E06B0700D18EE00F234E
:401D80002B40042B00D189E02A1DAA42AD418023012641466D427F191B043B400E40151C002B00D183E0B64B01349C4200D116E13A1CB44BED081A40500764055202054342
:401DC000120B640D002112030B0D1B056405120B1A436308AC4CF60714401C43640064083443281C211C03B03CBC90469946A246AB46F0BDA24B9C42BED080231B041A43CB
:401E0000382E00DD03E11F2E00DD3FE12020831B9946131C49468B409C46019B6046F34003430198F2408840011C481E81410B43EB1A9D4280411D1CBA1A4042171A3B0286
:401E400000D4A8E07A02560A002E00D1CAE0301C00F04CFB031C083B1F2B00DDCBE02822291C121AD1409E400A1C9D4032439C4200DDC8E01C1B671C1F2F00DDEDE01F2351
:401E8000291C1C1B131CA540A340F9406C1EA541FA4019430D43171C00246DE78023012642461B043B401640002B00D07BE7744BED0878070543FA089C423BD012036405F2
:401EC000120B640D7EE7231A9A46002B00DCA5E0002844D06A48844200D14DE78020000402435346382B00DC1CE1019B1A43511E8A41D1B200224919A94280410D1CD219D5
:401F0000404217183B0246D55D4B01349C4200D169E101205B4A6B083A4028401843D5070543570828E7131C01990B4300D111E74B4613E72B1C134351D080231B031A4373
:401F40001203120B3EE7013E002E00D080E0691A8D429B41BA1A5B42D71A0D1C6FE7101C019B184300D107E701235B429C46E2445346002B00D002E1019BD2195919A94258
:401F80009B415B42D7180D1CBCE76346034300D128E1071C65466B0700D0F0E6012643461E4084E7002E00D081E0601C4005400D012800DC07E10199681A84466545B641E4
:401FC000B81A7642861B300200D4A1E08C464D1BAC458941D21B4942561A984634E700220025EFE6281C00F081FA2030031C083B1F2B00DC33E7021C283A95402A1C0025DC
:402000009C4200DC36E71F4FE41A1740B4E6019B1A43511E8A41D3B2002209E7002B00D001E1601C43055B0D012B00DCB0E0144B984200D11EE1019BD2195919A9429B4138
:402040005B42D2184908D5070D435708041C93E60B4B9C4200D0D3E68EE6211C131C1F39CB40191C202F00D18EE03F231C1BA24015436A1E954100270D4300248BE7C0465D
:40208000FF070000FFFF7FFFFFFF0F80331C101C203BD840202E79D040239B1B9A40131C019A1343591E8B4100220343C0E6002C53D0C74CA04200D1B0E08024714289465D
:4020C000240427434946382900DDCDE01F2900DD59E120243E1C611A8E408A46B04649462E1CCE405146B4468D4064464646494626436C1EA541CF4035430199D71B8C4600
:402100004D1BAC4592415242BF1A041C984696E663466546334300D096E60026002700240025C4E61F2B61DC2020C31A9B46131C59468B4051469946019BCB409C464B4688
:40214000604603439C465B46019999406346481E814119435346DA40CDE63C1C2C435DD0F1438946002955D10199D21B8C464D1BAC4589414942571A041C98465FE694480D
:40218000844200D0ADE6F7E5002271E7002387E73B1C2B43002C00D0DAE0002B00D113E1131C01990B4300D1E6E54919A9429B41D2195B42D7183B0200D421E1854B0D1C45
:4021C0001F40041CD8E5381C2843002C40D1002800D083E0101C0199084303D0171C0D1C9846C9E500260027002560E65046131C2038C340181C5346202B00D1C1E04023BB
:4022000051465B1A9A40019911434A1E91410022014370E66E4CA04200D053E7171C019D041C9846A8E5002C28D13C1C2C4300D18AE0DB439A46002B00D082E0019BD219C9
:402240009C4665449D42894149425718041C59E600285BD1101C0199084300D1A4E0171C0D1C98465A4C87E53D436F1EBD410027EDB242E7041C0027002518E6544CA042E5
:4022800062D0534680245B429A46240427435346382B00DD8EE01F2B00DD9DE02024E31A9B463B1C59468B40514699462B1CCB409C464B46644623439C465B469D4063467E
:4022C0006C1EA541CF401D43019BBF189C4665449D4292415242BF18041C13E6101C0199084300D148E5681A844685428041BE1A4042301A060200D447E68C464D1BAC4510
:402300008941D21B4942571A984635E5101C0199084334D080247807ED08FF0824032843274208D0D608264205D1C90852070A43101C371C9846FF00420F1743C500244C1C
:402340001AE5234CA042A2D1171C019D041C13E5002B35D0131C01990B4310D080247807ED08FF08240328432742E4D0D3082342E1D1C90852070A43101C1F1CDBE7144CCA
:40238000FAE400223FE74C463E1C203CE6404946341C202932D04026761AB7403D436F1EBD4100272543A8E680270026FF03084C00257CE53D436F1EBD410027EDB283E766
:4023C000171C019D024CD7E4171C019DD4E4C046FF070000FFFF7FFF54463B1C203CE3401C1C5346202B0DD0402351465B1A9F403D436F1EBD410027254365E70027CDE77A
:402400000D1CC8E50027F3E70B0330B5134C1A0B4B00051C5B0DC90F0020A34210DD104883420EDC80200F4C40030243E41A1F2C0ADD0D48C31ADA40131C484243405818FE
:4024400030BD0A4BC818FBE7281CE040084CA44663449A40131C0343EFE7C046FE0300001D0400003304000013040000FFFFFF7FEDFBFFFF38B5041E16D0C50F00D04442F3
:40248000201C00F033F8174B1B1A0A2821DC021C211C153291400A1C0B21081AC4405B052403240B5B0D03E000250023002400220021101C24030A0D1205240B14430A4A09
:4024C0001B0514401C436400ED0764082C43211C38BD0B3884405B052403240B5B0D0022E6E7C0461E040000FFFF0F801C2101231B04984201D3000C10391B0A984201D385
:40250000000A08391B09984201D30009043902A2105C40187047C046040302020101010100000000000000000E4B70B500251E1C0D4CE41AA410A54204D0AB00F35898478C
:402540000135F8E700F0EAF8084B00251E1C084CE41AA410A54204D0AB00F35898470135F8E770BD28270000282700002827000030270000931E10B5222B02D90020087070
:402580000EE00A2A06D1002804DA2D2340420B702C3B00E000230C1CC91800F017F8201C10BD08B5FFF7E6FF08BD002310B5934203D0CC5CC4540133F9E710BD031C82188D
:4025C000934202D019700133FAE77047F0B58DB00092041C0D1C02A815492522FFF7E5FF0020009B061C023B222B01D928701DE0731C201C00990193FEF748FC02AB5B5C8E
:40260000AF19201C3B700099FEF7BAFB041E01D0019EEDE7019BE854B44206DA2B5DAA5D2A55AB550134013EF6E7281C0DB0F0BDF42600000000000000300F4000040040AA
:402640000F40000401000F4002300F4002310F4002400F4003410F4070015B045F016A4082408340E2204F80A340D220030405060708090A0B0C0E0F101112131415161787
:4026800018191B1C1D1E1F2021222325262728292A2B2E2F3031323334350000EEDBC9B9AA9B8E82766B60564D443B332C241D17100A0400CC190000AA190000AA190000EB
:4026C0009E1900009218000092180000921900009E1900009218000092190000921800009E190000961800009618000096180000AC1B000030313233343536373839616216
:40270000636465666768696A6B6C6D6E6F707172737475767778797A00000000F8B5C046F8BC08BC9E467047D10100001D040000F8B5C046F8BC08BC9E467047A901000014
:4027400050270000C8000020F8000000500100000000000000000000BE30992A1895943FBE30992A1895A43FBE30992A1895943F000000000000F03F60E5D022DBF9F8BF1D
:40278000D8F0F44A5986E43F9A9999999999A93F9A9999999999A93F9A9999999999A93F9A9999999999A93F9A9999999999A93F9A9999999999A93F9A9999999999A93F98
:4027C0009A9999999999A93F9A9999999999A93F9A9999999999A93F9A9999999999A93F9A9999999999A93F9A9999999999A93F9A9999999999A93F9A9999999999A93FE1
:402800009A9999999999A93F9A9999999999A93F9A9999999999A93F9A9999999999A93F9A9999999999A93F01000000000000000000C05D80BB000030000000006CDC024A
:40284000040404000000000000000000000000000000000000000000000000000000000000000000000000000000000000000000000000000000000000000000000000004C
:402880000000000000000000000000000000000000000000000000000000000000000000000000000000000000000000000000000000000000000000000000000000000018
:4028C00000000000000000000000000000000000000000000000000000000000000000000000000000000000000000000000000000000000000000000000000000000000D8
:402900000000000000000000000000000000000000000000000000000000000000000000000000000000000000000000000000000000000000000000000000000000000097
:402940000000000000000000000000000000000000000000000000000000000000000000000000000000000000000000000000000000000000000000000000000000000057
:020000040001F9
:0200000490303A
:02000000509618
:0200000490402A
:4000000000000000000000000000000000000000000000000000000000000000000000000000000000000000000000000000000000000000000000000000000000000000C0
:400040000000000000000000000000000000000000000000000000000000000000000000000000000000000000000000000000000000000000000000000000000000000080
:0200000490501A
:0C0000000002112D11A10001113A62371D
:0200000490600A
:0100000001FE
:00000001FF