:400000000040002011000000410B0000410B000080B500AF00F098FD80B500AF244B12221A6001F0A7FA012001F0B4FA182001F02BF9204B204A1A60204B204A12680221ED
:400040000A431A601E4B1F4A1A601F4B1E4A126808218A431A60FA23DB00181C01F060F91A4B181C01F02AFA194BE02212011A60184B194A1A60194BC02212011A60154B27
:40008000174A1A60174B822212061A60164B00221A60164B41221A60154B40221A60154B00221A60024B11221A60BD4680BDC0463000104004010B400600008078002E40DE
:4000C0007C002E402D3E00006CF02E40DC050000040301400000014041FF00800003014040FF008008010B4000010B4018010140040101400C020B4080B582B000AF72B6DD
:400100004D4B00221A604D4B01221A70FB1D00221A7023E0FB1D1A78131C5B009B185B00474A9B183B603B681A78597809020A43997809040A43DB781B061343191C3B68F3
:400140001A795B791B0213439BB2081C191C00F07FFDFB1D1A78FB1D01321A70FB1D1B78012BD7D9374A384B101C191C00F080FD364BEE2212061A60354B992212041A60CD
:40018000344B992212041A60334B992212041A60324B992212041A60314B802212061A60304B992212041A602F4B02221A602F4A2E4B1B78DBB202210B43DBB213702C4A4D
:4001C0002B4B1B78DBB23C218B43DBB214210B43DBB21370254A254B1B78DBB216210B43DBB21370234BD82212041A60224B20221A60224BC42292021A60214B20221A60E0
:40020000204BC0221A60204BB022D2031A601F4B802212021A601E4B47221A601D4BC02252031A601C4B07221A60FFF7F5FE00F05FFDBD4602B080BD6CF02E401C700F4096
:40024000143700002037000028370000000002400001024000500F4010500F4020500F4024500F4030500F402000104000700F4001700F400800044000010440080104408C
:400280001801044000020440080204400C02044000030440080304401803044010B5064C2378002B07D1054B002B02D0044800E000BF0123237010BDB801002000000000BC
:4002C0001037000008B5084B002B03D00748084900E000BF07480368002B00D108BD064B002BFBD09847F9E70000000010370000BC010020C80000200000000090B583B065
:4003000000AF38607960386879680022002301F0B3FB031E0DD03868796800220D4B01F0BFFB031C0C1C181C211C03F033F9031C0CE0386879680022064B02F0B1FD031CFF
:400340000C1C181C211C03F025F9031C181CBD4603B090BD0000E03F90B583B000AF7860786803F04DF9031C0C1C384A13605460374A0023002413605460364B00221A802A
:4003800030E0344B1B881BB2334ADB00D31819685A68304B1B881BB22C48DB00C3185C681B68081C111C1A1C231C02F0DFFA031C0C1C191C221C264B5C681B68081C111C08
:4003C0001A1C231C01F06CFB031C0C1C204A13605460204B1B889BB29BB201339BB29AB21C4B1A801B4B1B881BB2092BC9DD194B08221A8019E0174B1B881BB25A1C154B69
:400400001B881BB21149DB00CB185C681B680F49D2008A18136054600E4B1B889BB29BB2013B9BB29AB20B4B1A800A4B1B881BB2002BE0DA064B5C681B68181C211C03F0F9
:40044000A9F8031C181CBD4603B090BDD801002028020020C0020020D000002090B583B000AF78607B689BB21BB2181C03F0C8F8031C0C1C384A13605460384A00230024D4
:4004800013605460364B00221A8030E0344B1B881BB2344ADB00D31819685A68304B1B881BB22D48DB00C3185C681B68081C111C1A1C231C02F05AFA031C0C1C191C221C2F
:4004C000264B5C681B68081C111C1A1C231C01F0E7FA031C0C1C214A13605460204B1B889BB29BB201339BB29AB21D4B1A801C4B1B881BB2092BC9DD194B08221A8019E08A
:40050000174B1B881BB25A1C154B1B881BB21249DB00CB185C681B680F49D2008A18136054600F4B1B889BB29BB2013B9BB29AB20B4B1A800A4B1B881BB2002BE0DA074BF8
:400540005C681B68181C211C03F024F8031C181CBD4603B090BDC0463002002080020020C002002020010020B0B584B000AF7860786803F045F8031C0C1C404A1360546019
:400580003F4A00230024136054600023FB601EE03B4B1C685D683B4AFB68DB00D31818685968364AFB68DB00D3181A685B6802F0DDF9021C0B1C201C291C01F071FA031C13
:4005C0000C1C2F4A13605460FB680133FB60FB68022BDDDD0123FB601EE0294B1C685D68294AFB68DB00D31818685968244AFB68DB00D3181A685B6802F0B8F9021C0B1C1C
:40060000201C291C02F04CFC031C0C1C1C4A13605460FB680133FB60FB68022BDDDD0123FB601CE0FB685A1C1449FB68DB00CB185C681B681149D2008A1813605460FB687E
:400640005A1C0F49FB68DB00CB185C681B680C49D2008A1813605460FB68013BFB60FB68002BDFDA064B5C681B68181C211CFFF745FE031C181CBD4604B0B0BD88020020B0
:40068000A0020020700100208801002080B582B000AF78607B68CF330CDB7B68CD3309DA7B68CF331A1C131C9B009B185B007B607B6871E07B68CE3312DB7B68B8330FDA34
:4006C0007B68CE331A1C131C9B009B189B00181C152101F0B5F8031C0A337B607B685BE07B68B93312DB7B6890330FDA7B68B9331A1C131C9B009B189B00181C282101F095
:400700009FF8031C1E337B607B6845E07B68913312DB7B6854330FDA7B6891331A1C131C9B009B189B00181C3C2101F089F8031C32337B607B682FE07B68553312DB7B6864
:400740002F330FDA7B6855331A1C131C9B009B185B00181C252101F073F8031C46337B607B6819E07B68303312DB7B6815330FDA7B6830331A1C131C9B009B185B00181CC1
:400780001A2101F05DF8031C50337B607B6803E0C8235B427B607B68181CBD4602B080BD80B582B000AF78607B68C23311DB7B68B8330EDA7B68C2331A1C131C9B009B1816
:4007C0005B00181C092101F03BF8031C7B607B6871E07B68B93312DB7B68A6330FDA7B68B9331A1C131C9B009B189B00181C122101F026F8031C0A337B607B685BE07B68C2
:40080000A73312DB7B6883330FDA7B68A7331A1C131C9B009B189B00181C232101F010F8031C1E337B607B6845E07B68843312DB7B6845330FDA7B6884331A1C131C9B003B
:400840009B189B00181C3E2100F0FAFF031C32337B607B682FE07B68463312DB7B681E330FDA7B6846331A1C131C9B009B185B00181C272100F0E4FF031C46337B607B68E8
:4008800019E07B681F3312DB7B68092B0FDC7B681F331A1C131C9B009B185B00181C282100F0CEFF031C50337B607B6803E0C8235B427B607B68181CBD4602B080BDC046E9
:4008C00090B583B000AF7860204B1B881BB27A68D31A181C02F094FE031C0C1C181C211C1B4A1C4B01F004FC031C0C1C181C211C02F050FE031C9AB2174B1A807B689AB294
:40090000124B1A80144B1B881BB2012B06DD124B0A221A80104B1B881BB213E00E4B1B881BB2002B07DC0C4B0A2252421A800A4B1B881BB206E0084BC82252421A80064B12
:400940001B881BB2181CBD4603B090BDE00200207B14AE47E17A843FEA02002080B500AF002000F0EDFB031C9BB2454A944663449BB29AB2434B1A80012000F0E1FB031CFB
:400980009BB2414A944663449BB29AB23F4B1A80022000F0D5FB031C1A1C3D4B1A803D4B01221A703B4B1B78002B67D0354B1B881BB2181CFFF7D0FC031C9AB2364B1A80AC
:4009C000354B1B881BB2181CFFF760FE031C9AB2324B1A802D4B1B881BB2181CFFF73EFD031C9AB22E4B1A802D4B1B881BB2181CFFF7D6FE031C9AB22A4B1A80274B1B88BD
:400A00009AB2284B1B889BB2D3189BB29AB2264B1A80254B1B881BB2181C00F0C1F9224B1B881BB21B129BB21BB2181C00F0B8F9174B1B881BB2181CFFF796FD031C9AB2C7
:400A40001A4B1A80194B1B881BB2181CFFF738FF031C9AB2164B1A80154B1B881BB2181C00F09EF9124B1B881BB21B129BB21BB2181C00F095F9074B00221A70BD4680BD4D
:400A800015FCFFFFC402002034FCFFFFC6020020C8020020D2020020E4020020DC020020EC020020E8020020DA020020E2020020E602002080B500AF144B1B88002B13D134
:400AC00000F022FB00F01EFE031CDB43DBB2181C00F0F2FD0D4B1B889BB29BB201339BB29AB20A4B1A800CE000F01CFB00F00AFE031CDB43DBB2181C00F0DEFD034B00228B
:400B00001A8000F067FDBD4680BDC046C202002080B500AF084B181C00F074FD074B181C00F03EFB62B600F01FF900F0B9F900F091FB181CBD4680BDB50A00005D0900004B
:400B400080B500AFFEE7C04680B586B000AF224B7B61224B3B61204B7B6135E03B691B68FB603B695B68BB603B699B683B6000237B600CE0FB681A68BB681A60BB680433D2
:400B8000BB60FB680433FB607B6804337B607A683B689A42EED13B69DB683B6000237B6008E0BB6800221A60BB680433BB607B6804337B607A683B689A42F2D13B69103374
:400BC0003B617B69013B7B617B69002BC6D102F071FDFFF79DFFFEE7010000001838000080B582B000AF154B144A126801218A431A6000237B600FE07B68032B04D8104BA3
:400C00007A689200D35800E00E4B0F4A796889008B507B6801337B607B682F2BECD9FFF76BFA0A4B00221A60044B044A126801210A431A60BD4602B080BDC04600001040B6
:400C400000000000410B000000000020C000002080B582B000AF786039607A683B68101C00211A1C02F04CFDBD4602B080BDC04680B586B000AF7860396000233B610023F9
:400C80007B612FE07B699B007A68D3181B68BB600F23FB18BA681A70BB68FF229343BB6018E03B695B003A68D3181B781A1CBB68D318191C3B695B003A68D3185B780B70CF
:400CC0003B6901333B610F23FB181A780F23FB18013A1A700F23FB181B78002BE1D17B6901337B617B69012BCCD9BD4606B080BD80B500AF0A4B03221A600A4B03221A607F
:400D0000094B802212051A60084B07221A60084B07221A60074B00221A60BD4680BDC046300030403000314000003A4000033A4040033A40000E3F4080B500AF00F046F878
:400D4000BD4680BD80B500AF064B064A1268802109060A431A6000F019F800F01BF8BD4680BDC0460000244080B500AF064B1B78002B04D1FFF7E0FF034B01221A70FFF781
:400D8000E1FFBD4680BDC046D802002080B500AFBD4680BD80B500AF00F070F8BD4680BD80B582B000AF7860C046064B1B681F221340082BF9D0044B7A681A60BD4602B0BB
:400DC00080BDC046080224404002244080B500AF184B194A1A60194B00221A60184B01221A60184B184A1A60184B07221A60184B00221A60174B01221A60174B124A1A60FD
:400E0000164B00221A60164B04221A60154B00221A60154B00221A60144B00221A60144B00221A60134B00221A60134B00221A60BD4680BD000024400F0000024000244079
:400E4000480024400003244007000080040324401003244044002440000224400402244050002440880E2440C80E2440480F2440080F2440C80F2440880F244080B500AF46
:400E8000054B054A126805490A40902109040A431A60BD4680BDC04600010240FFFF0FFF80B500AF064B1B78002B04D100F00AF8034B01221A7000F00BF9BD4680BDC04678
:400EC000D902002080B584B000AF0F20032100F097FA624B0F20191C00F06CFA604B07221A60604B1B68002B01DA5F4900E05F495F4B5F4A12680A431A605E4B5E4A1A6093
:400F00005E4B5F4A1A605F4B00221A605E4B5F4A1A605F4B5F4A1A605F4B5F4A1268802149020A431A605D4B5C4A1268802149020A431A605A4B00221A605A4B00221A6089
:400F4000594B01221A60594B1B687B607B68584A13407B607B688022920513437B607B68012293437B60514B7A681A600023FB606EE0504BFA689200D258DC239B0113400C
:400F80007B604D4AFB68D3181B781A1C7B6813437B60FB689B00494A944663447A681A60444BFA689200D3580122134009D03C4B3B4A1268F96801208840011C89B20A43B4
:400FC0001A603C4BFA689200D3580222134009D0344B344A1268F96801208840011C89B20A431A60334BFA689200D25880239B00134003D080235B00BB6002E080235B01A7
:40100000BB602C4BFA689200D25880235B00134005D12B4BFA6852000021D15204E0284BFA6852000021D152BB68264A5343264A94466344181C234900F002FC031C9BB208
:4010400019B2224BFA689200D150FB680133FB60FB68022B8DD9BD4604B080BD8511000020003A4080033A40702010137020001300003A4004003A40CC00008018003A40EE
:40108000000009081C003A4010003A409800040014003A400400040000033A4040033A4028023A4038023A4018023A4030003A40FFFFFFDF343700004037000080003A4045
:4010C000FC0200201027000088130000F002002080B500AF0A4B1B68002B0EDBC046094B1B68002BFBDB064B054A1268802109060A431A600A2000F0E1F9BD4680BDC04675
:4011000000003A4008023A4080B500AF044B044A1268802149020A431A60BD4680BDC04604003A4080B500AF034B034A126803490A401A60BD4680BD04003A40FFFFFEFF7D
:4011400080B584B000AF78607B68022B02D9002000F0AAF97B68022B09D87B689B00084A944663441B681B041B0CFB6001E00023FB60FB689BB21BB2181CBD4604B080BD77
:4011800080013A4080B582B000AF044B1B687B60024B7A681A60BD4602B080BD10023A4080B582B000AF786000F04AF87B68181C00F008F8032000F011F800F037F8BD46E5
:4011C00002B080BD80B582B000AF7860024B7A685A64BD4602B080BD0000002090B585B000AF021CFB1D1A700E23FB600B23FC1800F043F8031C23700A4B0A4A12680A4909
:401200001140FA1D1078FA689040021C0A431A600B23FB181B78181C00F033F8BD4605B090BDC04600E400E0FF3FFFFF80B500AF024B02221A60BD4680BDC04600E100E0A3
:4012400080B500AF024B02221A60BD4680BDC04680E100E080B500AF024B802212021A60BD4680BD00E100E00230800803D00138FDD1C046C046C0467047EFF3108072B6BF
:40128000704780F31088704790B58BB000AF78602723FC18FFF7F1FF031C2370184B1A680C23FB181A60174B1A680C23FB185A607B68033B144AD35C1A1C0C23FB189A6017
:4012C000124B1A680C23FB18DA601C23FB18104A1A600C23FA181C23FB185A600D4B1C22BA181A600C4B0D4A1A600A4B1B682723FB181B78181CFFF7C4FFBD460BB090BD56
:4013000008010B4000010B404437000030001040B6EA000008001040040010401700008080B584B000AF78600023FB60154B154A126801210A431A60134B144A1A60144B0A
:40134000134A1268802109020A431A607B68002B12D01023FB600CE0012000F0AFF800F019F8031E02D00023FB6005E07B68013B7B607B68002BEFD1FB68181CBD4604B094
:4013800080BDC04660F02E4078002E400220000010002E4080B582B000AF054B1B68012213407B607B68181CBD4602B080BDC0460C002E4080B584B000AF021C3960FB1DFC
:4013C0001A7080239B05FB60FB1D1B781F2B02D9002000F069F8FB1D1B7810339B00FA68D3181B68BB60FB1D1B7810339B00FA68D3183A681A60BB68181CBD4604B080BDD3
:4014000090B587B000AF021CFB1D1A70BB1D0A1C1A70BB1D1B78032B02D9002000F044F8FB1D1B781F2B02D9002000F03DF8FB1D1B7803221340DB0006337B611323FC1807
:40144000FFF71BFF031C2370FB1D1B789B08DBB29B00144A944663441B68FB607B6903229A40131CDA43FB681340FB60BB1D1A787B699A40131CFA681343FB60FB1D1B7822
:401480009B08DBB29B00074A94466344FA681A601323FB181B78181CFFF7F3FEBD4607B090BDC04600E400E080B582B000AF021CFB1D1A7001BEBD4602B080BD80B582B0FD
:4014C00000AF021CBB1D1A80BB1D1B88044A12785343181CFFF7C8FEBD4602B080BDC046B001002080B500AF0E4B0E4A126801218A431A600B4B0B4A126802218A431A6004
:40150000094B094A126830218A4310210A431A60054B054A126807218A4301210A431A60BD4680BD00F02E4000FF2E4080B500AF0E4B0E4A126802218A431A600C4B0C4A4C
:40154000126807218A4302210A431A60084B084A126830218A4320210A431A60034B034A126801210A431A60BD4680BD00F02E4000FF2E4080B500AFFFF7B4FF044B044A9A
:401580001268802109060A431A60BD4680BDC04600F02E4080B584B000AF78600C4B1B6801221340FB607B68002B02D0012B03D005E0FFF797FF06E0FFF7B8FF03E0002015
:4015C000FFF772FFC046FB68181CBD4604B080BD00F02E4080B582B000AF094B1B68DAB2FB1D7F218A431A70054BFA1D12781A60FB1D1B78DB09DBB2181CBD4602B080BD60
:401600001002044080B582B000AF786000F04AF87B68181C00F008F8032000F011F800F037F8BD4602B080BD80B582B000AF7860024B7A689A64BD4602B080BD00000020D3
:4016400090B585B000AF021CFB1D1A701623FB600B23FC18FFF711FE031C23700A4B0A4A12680A491140FA1D1078FA689040021C0A431A600B23FB181B78181CFFF701FE7A
:40168000BD4605B090BDC04600E400E0FFFF3FFF80B500AF024B04221A60BD4680BDC04600E100E080B500AF024B04221A60BD4680BDC04680E100E080B584B000AF021CB9
:4016C000FB1D1A700E4B1B68DAB20F23FB1840218A431A70FB1D1B789B01DBB240221340D9B20F23FB180F22BA1812780A431A70034B0F22BA1812781A60BD4604B080BDDD
:401700000003044080B500AF044B1B68402213409B09DBB2181CBD4680BDC04604030440002243088B4274D303098B425FD3030A8B4244D3030B8B4228D3030C8B420DD3F2
:40174000FF22090212BA030C8B4202D31212090265D0030B8B4219D300E0090AC30B8B4201D3CB03C01A5241830B8B4201D38B03C01A5241430B8B4201D34B03C01A524124
:40178000030B8B4201D30B03C01A5241C30A8B4201D3CB02C01A5241830A8B4201D38B02C01A5241430A8B4201D34B02C01A5241030A8B4201D30B02C01A5241CDD2C309F4
:4017C0008B4201D3CB01C01A524183098B4201D38B01C01A524143098B4201D34B01C01A524103098B4201D30B01C01A5241C3088B4201D3CB00C01A524183088B4201D34D
:401800008B00C01A524143088B4201D34B00C01A5241411A00D20146524110467047FFE701B5002000F0FCF802BDC0460029F7D003B5FFF775FF0EBC4243891A1847C0462A
:4018400003460B437FD4002243088B4274D303098B425FD3030A8B4244D3030B8B4228D3030C8B420DD3FF22090212BA030C8B4202D31212090265D0030B8B4219D300E0BB
:40188000090AC30B8B4201D3CB03C01A5241830B8B4201D38B03C01A5241430B8B4201D34B03C01A5241030B8B4201D30B03C01A5241C30A8B4201D3CB02C01A5241830A38
:4018C0008B4201D38B02C01A5241430A8B4201D34B02C01A5241030A8B4201D30B02C01A5241CDD2C3098B4201D3CB01C01A524183098B4201D38B01C01A524143098B42F9
:4019000001D34B01C01A524103098B4201D30B01C01A5241C3088B4201D3CB00C01A524183088B4201D38B00C01A524143088B4201D34B00C01A5241411A00D20146524181
:40194000104670475DE0CA0F00D04942031000D34042534000229C4603098B422DD3030A8B4212D3FC22890112BA030A8B420CD3890192118B4208D3890192118B4204D37F
:4019800089013AD0921100E08909C3098B4201D3CB01C01A524183098B4201D38B01C01A524143098B4201D34B01C01A524103098B4201D30B01C01A5241C3088B4201D37A
:4019C000CB00C01A524183088B4201D38B00C01A5241D9D243088B4201D34B00C01A5241411A00D20146634652415B10104601D34042002B00D54942704763465B1000D34C
:401A0000404201B5002000F00BF802BD0029F8D003B5FFF715FF0EBC4243891A1847C0467047C0468446101C62468C46191C634600E0C0461FB500F033FF002801D400218D
:401A4000C8421FBD10B500F077FE4042013010BD10B500F025FF002801DB002010BD012010BDC04610B500F01BFF002801DD002010BD012010BDC04610B500F0A1FE0028E6
:401A800001DC002010BD012010BDC04610B500F097FE002801DA002010BD012010BDC046F0B5454657464E4694464C000A03C90FE0B488460E1C1903470FC500480A614612
:401AC000490F01436046520A1743C0005A00640D520DDB0F8446984500D1A7E0A01A002800DC01E1002A3DD163460B4300D0D4E06B0700D188E00F232B40042B00D183E01D
:401B00002A1DAA42AD4180236D427F191B043B404646151C002B00D17CE0CC4B01349C4200D1FDE03A1CCA4BED081A405007640552020543120B640D002112030B0D1B0501
:401B40006405120B1A436308C24CF60714401C43640064083443281C211C1CBC90469946A246F0BDB94B9C42C2D080231B041943382800DDECE01F2800DD21E120220E1C42
:401B80006346121A9640C340334366469640321C561EB24113430A1CC240EB1A9D42B6411D1CBA1A7642971B3B0200D497E07A02560A002E00D1B6E0301C01F05DFD031C4B
:401BC000083B1F2B00DDB7E09E40371C28262A1C361AF240161C9D403E439C4200DDB2E01C1B621C1F2A00DDD8E01F23291C1C1B331CA540A340D1406C1EA541D640194365
:401C00000D43371C002473E780231B043B40464600D082E78D4BED0878070543FA089C4232D012036405120B640D85E7A31A002B00DC94E0002A3CD0844A944200D157E772
:401C4000802212041143382B00DC05E163461943481E81410022C8B24019A8429B41051CD2195B42D7183B0239D5784B01349C4200D14CE10120764A6B083A402840184303
:401C8000D5070543570833E72B1C134348D080231B031A431203120B4EE70138002878D16346EE1AB5429B417A1A5B42D71A351C7AE7021C0A4300D11AE7013B002B00D0D7
:401CC000F2E04019A8429B41CA195B42D718051CC9E7131C334300D118E1171C351C46466B0700D007E795E700287AD1621C5205520D012A00DCFBE06246AA1A9542B641C5
:401D00009146781A7242861A320200D493E06246551BAC458041CF1B40423E1A984648E70022002508E7281C01F0A6FC2030031C083B1F2B00DC47E7283885402E1C002529
:401D40009C4200DC4CE7424AE41A1640371CCFE6634619434B1E99410022CBB21DE7002B00D0F2E0601C43055B0D012B00DCA4E0364B984200D121E163465C19AC429B4108
:401D8000CF195B42FA186408D50725435708041CAEE62E4B9C4200D0EAE6A9E6211C331C1F39CB40191C202A00D182E03F231C1BA64035436E1EB54100270D4300248EE719
:401DC000031C0E1C203BDE40202874D040231B1A99400B1C62461343591E8B4100223343DBE6002C50D0194CA24200D1A8E08024240440422743382800DDD9E01F2800DDA3
:401E000039E120243E1C241AA640B0462E1CA146C640444626434C46A5406C1EA541C74035436046451BCF1BAC45894149427F1A141C9846B8E64B464D46334300D0B8E6BD
:401E40000026002700240025E4E6C046FF070000FFFF7FFFFFFF0F801F2B5BDC2022081CD21A9040814660469246D8404A4610438146524660469040021C501E8241484658
:401E800010430A1CDA40E7E63C1C2C4358D0C043002851D16046451BAC458041CF1B40423F1A141C98467FE68F4A944200D0CAE61EE600267DE700238CE73B1C2B43002C52
:401EC00000D0BDE0002B00D1F5E063460B4300D10EE663465B19AB428041CA19404217183A0200D4FCE0814A1D1C17400134FFE53A1C2A43002C51D1002A00D085E0624611
:401F00000A4303D00F1C65469846F1E50026002700257FE6181C0A1C2038C240202B00D1A7E04020C01A8140081C63461843411E8841104300228FE66B4CA24200D05AE7E8
:401F40000F1C6546141C9846D2E5002C3AD1381C284371D0DB43002B18D0634882426BD0382B00DD9DE01F2B00DDA7E020203C1CC01A8440A1462C1C8246DC40484604432B
:401F800050468540681E8541DF402543654465459B417F185B42FF18141C64E6002A19D162460A4377D00F1C654698464E4C9FE53D436F1EBD410027EDB232E7041C0027AC
:401FC000002527E64848824236D0802000045B420743C5E762460A4349D08024ED087807FA0824032843224209D0CE08264206D162464F07381CD20810439846321CD20095
:40200000470F1743C500384C72E562460A4300D16EE56246AE1AB5429241781A5242821A100200D455E66246551BAC458041CA1B4042171A98465BE50F1C6546141C57E558
:40204000002B34D063460B4311D08024ED087807FA08240328432242D1D0CB082342CED162464F07381CD20810431A1CC7E71E4C3EE5002059E7041C3E1C203CE640341C35
:4020800020282BD04026301A87403D436F1EBD4100272543C5E680270026FF03124C0025B8E53D436F1EBD410027EDB26EE70F1C65460D4C1CE50F1C654619E51C1C381C7C
:4020C000203CE040041C202B0CD04020C31A9F403D436F1EBD410027254357E70027D4E71D1CFCE50027F3E7FF070000FFFF7FFFF0B55F4656464D464446F0B40F0387B0BA
:4021000098464D003B0BCC0F061C924681469B466D0D01946BD0664B9D4235D080275B467F031F43F3009946624BFF00400F9C4607430023BB460026654400934246170385
:402140005000D20F53463F0B400D904600D172E0574A904267D080235B031F435346554A5B0FFF001F43944653460021DB0060444246624092462D1A0E430F2E00D9A1E0B1
:402180004D48B600805987465B461E4300D076E000239B469946023308260093CEE799464346BB4601930091009B022B6BD1019B9A46002153460122002789461A403C4BB6
:4021C00000213F030C0D24053F0B27433B4C1B0527401F437F00D2077F0817434846391C07B03CBC90469946A246AB46F0BD03433ED05B46002B00D19CE1584601F03CFADD
:402200002823311C1B1A021C5F46D940083A97400B1C96403B439B46B1460023284D00262D1A00938AE7524603213A43A0D10027002302219CE752463A4315D0002F00D1EC
:4022400085E1381C01F018FA021C28215046891A131CC8405146083B99409F400B1C074317480021801A83E70027002301217FE700239B4699460133042600935EE7032332
:402280000C2600935AE7032B00D13CE2012B00D0BFE11A1C019B1A4000210023002789468EE700238027994600223F03004B87E7FF07000001FCFFFF74370000FFFF0F8085
:4022C0000DFCFFFFBB4500D951E100D14CE14A46039200225C469046013D180E3F0238431B020193030C994603041B0C4946061C201C1F1C0093FFF713FA021C7A430290F7
:402300004946201C171CFFF791FA039B09041B0C19438F420CD9029B8919013B8E4200D952E18F4200D84FE1029B8919023B0293CC1B201C4946FFF7F3F9009F8346474373
:402340004946201CFFF772FA039A0B041404240C23439F420DD95A469B19013A9E4200D930E19F4200D82DE10222524294469B19E344029ADB1B17045A463A439346019C42
:40238000170C220C101C04925A4611042204120C141C090C7C4305924A43414347436118100C09188C4203D980204002844667440C0C12040804120C3C198118A34200D227
:4023C000E5E000D1DFE01F1B43465C1AA04592415242BF1AB74200D10EE1381C4946FFF79FF9009B029043434946381C9846FFF71DFA230C0F041F43B8450CD9029BBF1984
:40240000013BBE4200D9FBE0B84500D8F8E0029BBF19023B02934346FF1A4946381CFFF77FF9009B039043434946381C9846FFF7FDF924040904240C214388450CD9039B4B
:402440008919013B8E4200D9DCE0884500D8D9E0039B8919023B03934346C91A029B039A1B04059C1A43100C13049146221C049F1B0C5A4344437B437843E318170CDB1924
:402480009C4203D980246402A44660441C0C12041B04120C00199B18814200D296E000D1FCE04A4601231A4391469B4BEB18002B00DC99E04A4652070AD00F2249460A40AD
:4024C000042A05D00431494592418946524293445A46D20106D55A46904B1A4080239346DB00EB188E4A934200DD62E64A465946D208490711435A4689465702514601228B
:402500005B053F0B5B0D0A405AE680205A460003024208D0074206D107433F0399463F0B4246804B4CE65F4607433F033F0B221C7C4B45E601F0A0F8031C2030272800DC78
:402540005EE6083B9E400023B346994665E6504601F092F8021C2032272A00DC75E657460838874000237BE6994500D2AFE65A46594654084A46C8075208024303924A467C
:40258000D2079046A9E60027884500D31CE7019F5A46BC46E044B845BF417F42BF19FF18013ABE4206D2BC425FD800D19FE03F1B934609E7B742FAD1019B4345F3D9371B3F
:4025C000934601E79346D4E60293B1E64A468919013A8E4218D99146814200D061E7019A9A4200D05DE760E74F4F7F1B382F13DD012253461A404FE601235B42994654E7F4
:40260000029308E7039327E788423CD874D0914647E7019B9A4648E71F2F44DC434B4A469C465B466544FA40AB4013434A46AA40151C6A1E95415A46FA402B43171C5A0788
:4026400009D00F221A40042A05D01A1D9A429B415B42FF18131C3A023ED55346012200211A40002701238946AAE502235B429C46019AE3449446E04490459B415B429B198C
:40268000DF193F1BA0E6019F4A467C00BC42BF417F42BF19023AC91901949CE7002B95D1002201929BE75A46214B5B1BDA40202F27D0204B9C465B466544AB4049460B43C0
:4026C000591E8B411343072200271A4007D00F2200271A40042AB8D17A077F023F0BDB0813439946012253461A40002368E54145BBD89346002767E6019C9C42C3D391461F
:402700006DE70023DAE780275B463F031F433F033F0B019A034B53E5FF030000FFFFFFFEFE070000FF07000002FCFFFF1E040000E2FBFFFF3E040000F0B55F464D4644461E
:402740005646F0B41F035C00DB0F99461B4B0E034D00C90F8446360B6D0D8B4690463F0B640D9D420CD0154B9C4210D00123A54214D0181C3CBC90469946A246AB46F0BD20
:40278000311C01230143F4D10C4B9C42EED13A430123002AEDD10123A542EAD1BE42E8D1C445E6D1CB4506D0002DE2D13043031C581E8341DDE70023DBE7C046FF0700009C
:4027C000F0B5574645464E46E0B40F034E00C90F8A4632491D035C0084463F0B760D90462D0B640DDB0F8E420FD08C4239D0002E10D13843414241418946002C27D12A4370
:4028000025D1002000290ED108E0391C01432ED1B44226D0002C0BD09A450DD05346594201231943081C1CBC90469946A246F0BD2A43F3D09A45F1D1A642EFDC1ADA504643
:4028400041424841012341421943081CEBE74A46002AE1D058425841012241421143081CE1E7291C114302D1002EC2D0D4E702204042D8E7AF42D1D809D00020AF42D2D25D
:40288000504641424841012340421843CBE7C445C4D80020C445F3D3C5E7C046FF070000F0B55F464D46444656468046F0B4061C0803000B84462C484C001F035D00C90FF1
:4028C000640D8B4691463F0B6D0DDB0F844212D0854225D0002C14D161460E4370424641002D35D0002E21D058425841012143420B43181C0EE06146022031430AD1A542D1
:402900000ED0002D12D13A4310D15B46594201231943081C3CBC90469946A246AB46F0BD391C02201143F5D1002CD5D09B45ECD1AC42EADC05DBBC45E7D80FD00020BC45E5
:40294000E8D2584641424841414201200843E1E73A43C7D10020002EDCD1D6E7C845D4D80020C845EDD3D5E7FF070000F0B55F4656464D464446F0B4051C061C080387B0DB
:4029800099464F00030BCC0F92469B467F0D019467D06C4B9F4236D080205B4640031843C0006B0F1843684B83469C4600239846EE00674400934B4649461D03C90F5B00DF
:4029C00052462D0B5B0D894600D16EE05D498B4264D080205C4940038C4600210543ED00500F0543D20063444846FF187B1C9A46009B604002900B430F2B00D9ACE05348C9
:402A00009B00C3589F465B461D4300D082E00823009300239B46023300269846CBE7029B01934346022B59D1012400250026019B1C40444B00212D030A0D12052D0B154304
:402A4000434A1B0515401D436D00E4076D082543301C291C07B03CBC90469946A246AB46F0BD2B434ED05B46002B00D185E1584600F002FE021C2823291C9B1A161C5846F4
:402A8000D940083EB0400B1CB54003439B462E1C0023304F0093BF1A98468CE7514629432ED10025002202219EE75146294323D0002D00D154E1281C00F0DEFD031C28214A
:402AC0005046C91A1A1CC8405146083A914095400A1C05431F480021C31A85E7032B00D1C2E1012B00D06DE14446019B00251C40E4B2002300269DE700250022012173E7A8
:402B0000032171E70423009300239B4601330026984650E70C230093093B98464BE7802500242D030026074B84E74B46AB46161C0193884675E7029BAB46161C0193884666
:402B40006FE7C046FF07000001FCFFFFB4370000FFFF0F800DFCFFFF330C3604360C9C46331C140C1204120C53439846634653439946634663430193331C41466343090C33
:402B80004B445B18994505D9802040028146019949440191190C039141460904090C1B045B1804932B0C9846331C2D04290C4B43604600934346654658435E43009B4D433E
:402BC0001B0C9946AE194E448446B54203D980235B029946CC44350C2B1C0398634484460593009B36041B041B0CF3189C446046039058460504060C280C84465043351CE4
:402C000081466046654344434846000C8346724314195C44A24203D98022520293465D44220CAD184A461204120C24044046A41862464A43714346436046009646467043D5
:402C40008046100C84468844E044414505D9802149028C46009961440091019803998446614499429B415B4299460598434684461204120C1B049B1863449C46AB468342BB
:402C80009B4140460A19CC44A2428941E344CC45B6415C46000C8046494276425B426418334398448C428941AB459B4149425B4219430D1C009B4544EE187602E50D2E436A
:402CC000B346049B56021E43731E9E415B46D20D324366021643DB010AD50123334076081E435B46DB071E435B465B089B465746634BFB18002B5ADD720709D00F223240AE
:402D0000042A05D0321DB242B6417642B344161C5A46D20106D55A465A4B1A4080239346DB00FB18584A934234DD0124029B00251C400026554B7DE680205B4600030342A1
:402D400008D0054206D105432D032D0B4C46161C4E4B6FE65D4605432D032D0B4B4B69E6504600F089FC031C2033272B00DCA6E65546083885400022ACE6281C00F07CFC8C
:402D8000021C2032272A00DC75E6083885400026AB467DE65A46F608520716435A4601245502029A5B052D0B5B0D144042E6384DED1B382D0ADD0124029B00251C400026D6
:402DC000002337E6019B5746029391E71F2D25DC304B321C9C466744BE405B46BB40371CEA407E1EB74113433B431E1C5B46EB401D1C730709D00F233340042B05D0331DA0
:402E0000B342B6417642AD191E1C2B0220D50124029B00251C40002601230BE65A461E4BDB1BDA40131C202D1CD01C4A94465A466744BA40171C3E43721E96411E430723A2
:402E40000025334007D00F2300253340042BD6D16B076D022D0B0124F6081E43029B1C400023E7E50027E6E780255B4601242D031D43019B2D0323401C1C2D0B034BD9E524
:402E8000FF030000FFFFFFFEFE070000FF07000002FCFFFF1E040000E2FBFFFF3E040000F0B54D4644465F465646F0B40E1C111C3203520A470F1743C5001A035800DB0F6C
:402EC0009946520A4B0F83B01A43CB000193CF4B7400F60F640DB046400D984200D1E8E00123494659400B1C9E4200D1B1E0261A002E00DC1CE1002842D1131C01990B4346
:402F000000D0E6E06B0700D18EE00F232B40042B00D189E02A1DAA42AD418023012641466D427F191B043B400E40151C002B00D183E0B64B01349C4200D116E13A1CB44BE2
:402F4000ED081A405007640552020543120B640D002112030B0D1B056405120B1A436308AC4CF60714401C43640064083443281C211C03B03CBC90469946A246AB46F0BD06
:402F8000A24B9C42BED080231B041A43382E00DD03E11F2E00DD3FE12020831B9946131C49468B409C46019B6046F34003430198F2408840011C481E81410B43EB1A9D423B
:402FC00080411D1CBA1A4042171A3B0200D4A8E07A02560A002E00D1CAE0301C00F04CFB031C083B1F2B00DDCBE02822291C121AD1409E400A1C9D4032439C4200DDC8E0F6
:403000001C1B671C1F2F00DDEDE01F23291C1C1B131CA540A340F9406C1EA541FA4019430D43171C00246DE78023012642461B043B401640002B00D07BE7744BED0878071D
:403040000543FA089C423BD012036405120B640D7EE7231A9A46002B00DCA5E0002844D06A48844200D14DE78020000402435346382B00DC1CE1019B1A43511E8A41D1B2D6
:4030800000224919A94280410D1CD219404217183B0246D55D4B01349C4200D169E101205B4A6B083A4028401843D5070543570828E7131C01990B4300D111E74B4613E77A
:4030C0002B1C134351D080231B031A431203120B3EE7013E002E00D080E0691A8D429B41BA1A5B42D71A0D1C6FE7101C019B184300D107E701235B429C46E2445346002B82
:4031000000D002E1019BD2195919A9429B415B42D7180D1CBCE76346034300D128E1071C65466B0700D0F0E6012643461E4084E7002E00D081E0601C4005400D012800DC2A
:4031400007E10199681A84466545B641B81A7642861B300200D4A1E08C464D1BAC458941D21B4942561A984634E700220025EFE6281C00F081FA2030031C083B1F2B00DCB5
:4031800033E7021C283A95402A1C00259C4200DC36E71F4FE41A1740B4E6019B1A43511E8A41D3B2002209E7002B00D001E1601C43055B0D012B00DCB0E0144B984200D18C
:4031C0001EE1019BD2195919A9429B415B42D2184908D5070D435708041C93E60B4B9C4200D0D3E68EE6211C131C1F39CB40191C202F00D18EE03F231C1BA24015436A1EF6
:40320000954100270D4300248BE7C046FF070000FFFF7FFFFFFF0F80331C101C203BD840202E79D040239B1B9A40131C019A1343591E8B4100220343C0E6002C53D0C74C4B
:40324000A04200D1B0E0802471428946240427434946382900DDCDE01F2900DD59E120243E1C611A8E408A46B04649462E1CCE405146B4468D4064464646494626436C1ED0
:40328000A541CF4035430199D71B8C464D1BAC4592415242BF1A041C984696E663466546334300D096E60026002700240025C4E61F2B61DC2020C31A9B46131C59468B40BC
:4032C00051469946019BCB409C464B46604603439C465B46019999406346481E814119435346DA40CDE63C1C2C435DD0F1438946002955D10199D21B8C464D1BAC45894107
:403300004942571A041C98465FE69448844200D0ADE6F7E5002271E7002387E73B1C2B43002C00D0DAE0002B00D113E1131C01990B4300D1E6E54919A9429B41D2195B4293
:40334000D7183B0200D421E1854B0D1C1F40041CD8E5381C2843002C40D1002800D083E0101C0199084303D0171C0D1C9846C9E500260027002560E65046131C2038C3401B
:40338000181C5346202B00D1C1E0402351465B1A9A40019911434A1E91410022014370E66E4CA04200D053E7171C019D041C9846A8E5002C28D13C1C2C4300D18AE0DB430F
:4033C0009A46002B00D082E0019BD2199C4665449D42894149425718041C59E600285BD1101C0199084300D1A4E0171C0D1C98465A4C87E53D436F1EBD410027EDB242E77C
:40340000041C0027002518E6544CA04262D0534680245B429A46240427435346382B00DD8EE01F2B00DD9DE02024E31A9B463B1C59468B40514699462B1CCB409C464B4619
:40344000644623439C465B469D4063466C1EA541CF401D43019BBF189C4665449D4292415242BF18041C13E6101C0199084300D148E5681A844685428041BE1A4042301A99
:40348000060200D447E68C464D1BAC458941D21B4942571A984635E5101C0199084334D080247807ED08FF0824032843274208D0D608264205D1C90852070A43101C371C14
:4034C0009846FF00420F1743C500244C1AE5234CA042A2D1171C019D041C13E5002B35D0131C01990B4310D080247807ED08FF08240328432742E4D0D3082342E1D1C908AB
:4035000052070A43101C1F1CDBE7144CFAE400223FE74C463E1C203CE6404946341C202932D04026761AB7403D436F1EBD4100272543A8E680270026FF03084C00257CE5E0
:403540003D436F1EBD410027EDB283E7171C019D024CD7E4171C019DD4E4C046FF070000FFFF7FFF54463B1C203CE3401C1C5346202B0DD0402351465B1A9F403D436F1E61
:40358000BD410027254365E70027CDE70D1CC8E50027F3E70B0330B5134C1A0B4B00051C5B0DC90F0020A34210DD104883420EDC80200F4C40030243E41A1F2C0ADD0D485C
:4035C000C31ADA40131C48424340581830BD0A4BC818FBE7281CE040084CA44663449A40131C0343EFE7C046FE0300001D0400003304000013040000FFFFFF7FEDFBFFFFDE
:4036000038B5041E16D0C50F00D04442201C00F033F8174B1B1A0A2821DC021C211C153291400A1C0B21081AC4405B052403240B5B0D03E000250023002400220021101C87
:4036400024030A0D1205240B14430A4A1B0514401C436400ED0764082C43211C38BD0B3884405B052403240B5B0D0022E6E7C0461E040000FFFF0F801C2101231B049842C0
:4036800001D3000C10391B0A984201D3000A08391B09984201D30009043902A2105C40187047C046040302020101010100000000000000000E4B70B500251E1C0D4CE41A43
:4036C000A410A54204D0AB00F35898470135F8E700F090F8084B00251E1C084CE41AA410A54204D0AB00F35898470135F8E770BD0038000000380000003800000838000087
:40370000031C8218934202D019700133FAE770470000000000300F40000400400F40000404410F4002600F402F086F08CA20DA800201110100040000000400000004000066
:4037400000010200030405060708090A0B0C0E0F101112131415161718191B1C1D1E1F2021222325262728292A2B2E2F3031323334350000C4220000B221000098220000E3
:403780009E21000098220000A2220000982200009E210000B2210000B2210000A22200009E210000A8210000A8210000A82100000A250000582B0000362B0000362B00005B
:4037C0002A2B00001E2A00001E2A00001E2B00002A2B00001E2A00001E2B00001E2A00002A2B0000222A0000222A0000222A0000382D0000F8B5C046F8BC08BC9E46704709
:40380000C5020000E10B0000F8B5C046F8BC08BC9E4670479D02000028380000C8000020F00000005001000000000000000000009A9999999999B93F9A9999999999B93FC9
:403840009A9999999999B93F9A9999999999B93F9A9999999999B93F9A9999999999B93F9A9999999999B93F9A9999999999B93F9A9999999999B93F9A9999999999B93FD0
:403880009A9999999999B93F9A9999999999B93F9A9999999999B93F9A9999999999B93F9A9999999999B93F9A9999999999B93F9A9999999999B93F9A9999999999B93F90
:4038C0009A9999999999B93F9A9999999999B93FFA7E6ABC7493583FE09C11A5BDC1673FFA7E6ABC7493583F000000000000F03FD34D62105839FEBFC217265305A3EC3FA8
:40390000010000000000000000366E01C05D0000180000000000E02E000000000000000000000000000000000000000000000000000000000000000000000000000000009E
:403940000000000000000000000000000000000000000000000000000000000000000000000000000000000000000000000000000000000000000000000000000000000047
:403980000000000000000000000000000000000000000000000000000000000000000000000000000000000000000000000000000000000000000000000000000000000007
:4039C00000000000000000000000000000000000000000000000000000000000000000000000000000000000000000000000000000000000000000000000000000000000C7
:403A00000000000000000000000000000000000000000000000000000000000000000000000000000000000000000000000000000000000000000000000000000000000086
:020000040001F9
:0200000490303A
:02000000EF1BF4
:0200000490402A
:4000000000000000000000000000000000000000000000000000000000000000000000000000000000000000000000000000000000000000000000000000000000000000C0
:400040000000000000000000000000000000000000000000000000000000000000000000000000000000000000000000000000000000000000000000000000000000000080
:0200000490501A
:0C00000000020E34119E00010E4700B9F2
:0200000490600A
:0100000001FE
:00000001FF